:020000040000FA
:2000000012C02CC02BC02AC029C028C027C026C025C024C023C022C021C020C01FC01EC0A3
:200020001DC01CC01BC011241FBECFE5D4E0DEBFCDBF10E0A0E6B0E0ECECF1E002C0059083
:200040000D92A837B107D9F720E0A8E7B0E001C01D92A837B207E1F702D0B6C0D1CF60E86B
:2000600075E280E090E021D044D0FECF5F9B02C08CB108958FEF08955D9BFECF8CB908952F
:200080000F931F93CF93DF936115710549F08C01EC01060F171F8991EFDFC017D107D9F7E7
:2000A000DF91CF911F910F910895599A549A539A20B5206820BD20B5226020BD20B52460EE
:2000C00020BD599B05C028E030E040E050E004C020E130E040E050E030D09B01AC0160E470
:2000E00072E48FE090E038D02150310930BD29B90895BCDF803319F0813381F008956BE048
:2001000070E080E690E0BCDF2FE38DE093E0215080409040E1F700C0000008956AE070E05C
:200120008CE690E0ADDF2FE38DE093E0215080409040E1F700C000000895DB018F939F93F9
:200140002DD0BF91AF91A29F800D911DA39F900DB29F900D11240895A1E21A2EAA1BBB1B91
:20016000FD010DC0AA1FBB1FEE1FFF1FA217B307E407F50720F0A21BB30BE40BF50B661F8D
:20018000771F881F991F1A9469F760957095809590959B01AC01BD01CF01089509D0A59F97
:2001A000900DB49F900DA49F800D911D11240895A29FB001B39FC001A39F01D0B29F700D7C
:2001C000811D1124911D0895F894FFCF626F6F74206D6F6465203A00617070206D6F6465CE
:0401E000203A0000C1
:2004000012C019C018C017C016C015C014C013C012C011C010C00FC00EC00DC00CC00BC0BC
:200420000AC009C008C011241FBECFE5D4E0DEBFCDBF02D018C0E4CF8FEF81BB12BA2FE3C9
:200440003DE093E0215030409040E1F700C0000082BB2FE33DE093E0215030409040E1F75B
:0A04600000C00000EBCFF894FFCFBE
:0400000500000400F3
:00000001FF
