:020000040000FA
:2000000012C021C020C01FC01EC01DC01CC01BC01AC019C018C039C116C015C014C013C025
:2000200012C011C010C011241FBECFE5D4E0DEBFCDBF20E0A0E6B0E001C01D92A23FB2078A
:20004000E1F721D1BDC1DCCF80E091E09093A8008093A70060E875E280E090E044D1089536
:20006000CF92DF92EF92FF920F931F93CF93DF93EC018A81883439F0823509F48BC08434E0
:2000800009F09CC02AC081E088BBE0E6F0E08BE380838BE0818388E4828381E4838394E5B2
:2000A00094839DE4958395E4968397E49783808788E381878AE382877F0100E010E06F01B9
:2000C000F70181917F010BD10F5F1F4FF601818190E008171907A4F384C0E0E6F0E08BE357
:2000E000808384E081832091F0003091F1002130F2E03F07D0F0E0E6F0E083E482838AE3AA
:2001000083838F01C0E0D0E07F01F80181918F01E6D02196F701818190E0C817D907ACF3A9
:200120001092F1001092F00062C0F9012034310584F4D901AD59BF4F84918D933196E0347E
:20014000F105D1F78FE390E0821B930B8B5F80936100205C3F4F3093F1002093F000E0E63F
:20016000F0E084E482838AE38093A30081818823C1F17F0100E010E06F01F70181917F0176
:20018000AED00F5F1F4FF601818190E008171907A4F327C082E088BB8981882311F17E0104
:2001A00000E010E0F70181917F0199D00F5F1F4F898190E008171907ACF313C08EE48A83F6
:2001C0008981882371F07E0100E010E0F70181917F0185D00F5F1F4F898190E00817190746
:2001E000ACF3CB5BDF4F88818D7F877F8883DF91CF911F910F91FF90EF90DF90CF9008954D
:200200009091EE0093FD3EC08B3399F490FD30C0EEEEF0E0892F81608083ADEEB0E0EC9189
:2002200081E08E0F8C93F0E0E755FF4F8BE38083089590FF27C0ADEEB0E0EC9191E09E0FFD
:200240009C93F0E0E755FF4F80838A33D9F48091AA00981317C0EEEEF0E080811092ED000F
:200260008E7F82608860808389EA90E0F9DE0895ADEEB0E0EC9191E09E0F9C93F0E0E7554C
:20028000FF4F80830895E0DEFFCF1F920F920FB60F9211242F933F934F935F936F937F937B
:2002A0008F939F93AF93BF93EF93FF93E091A700F091A800309711F08CB10995FF91EF914E
:2002C000BF91AF919F918F917F916F915F914F913F912F910F900FBE0F901F9018955D9B6F
:2002E000FECF8CB908957894599A579A549A539A20B5206820BD20B5226020BD20B52460BD
:2003000020BD599B05C028E030E040E050E004C020E130E040E050E00CD09B01AC0160E451
:2003200072E48FE090E014D02150310930BD29B90895DB018F939F932DD0BF91AF91A29F8F
:20034000800D911DA39F900DB29F900D11240895A1E21A2EAA1BBB1BFD010DC0AA1FBB1FEF
:20036000EE1FFF1FA217B307E407F50720F0A21BB30BE40BF50B661F771F881F991F1A9456
:2003800069F760957095809590959B01AC01BD01CF01089509D0A59F900DB49F900DA49F68
:2003A000800D911D11240895A29FB001B39FC001A39F01D0B29F700D811D1124911D08952C
:0403C000F894FFCFDF
:2004000012C019C018C017C016C015C014C013C012C011C010C00FC00EC00DC00CC00BC0BC
:200420000AC009C008C011241FBECFE5D4E0DEBFCDBF02D018C0E4CF8FEF81BB12BA2FE3C9
:200440003DE093E0215030409040E1F700C0000082BB2FE33DE093E0215030409040E1F75B
:0A04600000C00000EBCFF894FFCFBE
:0400000500000400F3
:00000001FF
