:100000000C9457000C94B9130C94DE190C94DE195F
:100010000C94DE190C94DE190C94DE190C94DE1984
:100020000C94DE190C94DE190C94DE190C94DE1974
:100030000C94DE190C94DE190C94DE190C94DE1964
:100040000C94DE190C94DE190C94DE190C94241710
:100050000C94DE190C94DE190C94DE190C94DE1944
:100060000C94DE190C94DE190C94DE190C94DE1934
:100070002C014F0570044F054F054F054F054F05E7
:100080004F054F054F054F050E024F0523014F0544
:10009000A1024F054F051A013403D2030100017B71
:1000A00080017B01BB0033CA01BB01BF800011246A
:1000B0001FBECFEFD4E0DEBFCDBFECE9F0E040E003
:1000C00017C0B591A59135912591059107FD0CC0FB
:1000D00095918591EF01F92FE82F05900D92A217C8
:1000E000B307D9F7FE0104C01D92A217B307E1F7C9
:1000F000ED3AF40731F70E9456150C947119F894F3
:02010000FFCF2F
:10010200534142202573203A20307825303278201E
:100112000D0A0048656C6C6F00574F524C44002525
:100122003034783A307825303278200A0D00253084
:100132003478203A203078253032780A0D003D3A62
:10014200756E6B6E776F6E0A0D000D0A7361622019
:100152003E0053544152004D4F44450054494D52C4
:10016200004441464F005246432000434352300070
:100172004343523100434352320043435233005609
:1001820053545200495043200043435234000D0A55
:0A019200004552524F52004F4B003F
:10019C0047495320203A2025630049535230203AD6
:0E01AC002025630049535231203A202563007C
:1001BA000D0A736162203E005243484152203A20A0
:0601CA002563200D0A0070
:1001D00068076C094C836A9074A07AC000806888B4
:0601E00000846C82008126
:0701E600286E756C6C290006
:0601ED00286E696C290078
:1001F4008F929F92AF92BF92CF92DF92EF92FF9233
:100204000F931F93CF93DF938091BD01882309F44B
:1002140034C520910201822F90E0FC01E456F109DB
:10022400E631F10508F039C4E85CFF4F0C94C019BD
:1002340080910501882309F4F6C3803209F0E0C3F4
:10024400D9C380910501882309F40EC5803209F0D1
:1002540069C362C38091B8018F938091B7018F9372
:100264008091B6018F930E945218809120051F92AD
:100274008F93CBE7D1E08A818F9389818F93888193
:100284008F930F2EF2E0CF2EF1E0DF2EF0E0EF2E71
:10029400F02DEF92DF92CF920E94521880912205A6
:1002A4001F928F938D818F938C818F938B818F93EA
:1002B400EF92DF92CF920E945218809123051F92F1
:1002C4008F9388858F938F818F938E818F93EF92F5
:1002D400DF92CF920E945218809127051F928F932C
:1002E4008B858F938A858F9389858F93EF92DF9285
:1002F400CF920E9452188DB79EB783960FB6F8948A
:100304009EBF0FBE8DBF809128051F928F938E854F
:100314008F938D858F938C858F93EF92DF92CF92FD
:100324000E94521880912C051F928F9389898F9374
:1003340088898F938F858F93EF92DF92CF920E945B
:10034400521880912D051F928F938C898F938B89DE
:100354008F938A898F93EF92DF92CF920E945218E3
:1003640080912E051F928F938F898F938E898F93FF
:100374008D898F93EF92DF92CF920E945218ADB77E
:10038400BEB790960FB6F894BEBF0FBEADBF8091B6
:100394002F051F928F938A8D8F93898D8F93888DCC
:1003A4008F93EF92DF92CF920E945218809134057E
:1003B4001F928F938D8D8F938C8D8F938B8D8F93B5
:1003C400EF92DF92CF920E945218809139051F92CA
:1003D4008F9388A18F938F8D8F938E8D8F93EF92B0
:1003E400DF92CF920E94521880913F051F928F9303
:1003F4008BA18F938AA18F9389A18F93EF92DF9220
:10040400CF920E945218EDB7FEB7B0960FB6F8948B
:10041400FEBF0FBEEDBF50C3C19A20E030E04AE7F3
:1004240055E460E070E081E69BE40E94D0194B0142
:100434005C0120E030E048E452E40E94D4196B01EE
:100444007C0120E030E040E85FE30E94C619882385
:100454000CF120E03FEF4FE757E4C701B6010E94DB
:10046400CB19181694F420E030E040E251E4C501C1
:10047400B4010E94D0190E94C71684EF91E0FB01D9
:100484003197F1F70197D9F72EC3C701B6010E943E
:10049400C71602C061E070E0CB010197F1F761E497
:1004A40082E491E00E942A19E1E08E2790E0FC01A9
:1004B400EE0FFF1F8E0F9F1FFC01E055FE4F828140
:1004C4008F9381818F9380818F930E9452180F9014
:1004D4000F900F9020E030E040E85FE3C701B601E1
:1004E4000E94C61988230CF120E03FEF4FE757E440
:1004F400C701B6010E94CB19181694F420E030E02D
:1005040040E251E4C501B4010E94D0190E94C7160B
:1005140084EF91E0FB013197F1F70197D9F70DC012
:10052400C701B6010E94C71605C061E070E002C0B1
:1005340061E070E0CB010197F1F7C198BDC2C19AA7
:1005440020E030E04AE755E460E070E081E69BE4B7
:100554000E94D0194B015C0120E030E048E452E4F1
:100564000E94D4196B017C0120E030E040E85FE395
:100574000E94C61988230CF120E03FEF4FE757E4AF
:10058400C701B6010E94CB19181694F420E030E09C
:1005940040E251E4C501B4010E94D0190E94C7167B
:1005A40084EF91E0FB013197F1F70197D9F7C1C2CC
:1005B400C701B6010E94C71602C061E070E0CB011A
:1005C4000197F1F761E482E491E00E949C18E1E074
:1005D4008E2790E0FC01EE0FFF1F8E0F9F1FFC0182
:1005E400E055FE4F82818F9381818F9380818F9319
:1005F4000E9452180F900F900F9020E030E040E8D6
:100604005FE3C701B6010E94C61988230CF120E0FC
:100614003FEF4FE757E4C701B6010E94CB19181604
:1006240094F420E030E040E251E4C501B4010E94BA
:10063400D0190E94C71684EF91E0FB013197F1F7BE
:100644000197D9F70DC0C701B6010E94C71605C0AE
:1006540061E070E002C061E070E0CB010197F1F766
:10066400C1982AC2C19A20E030E04AE755E460E02C
:1006740070E081E69BE40E94D0194B015C0120E00C
:1006840030E048E452E40E94D4196B017C0120E07C
:1006940030E040E85FE30E94C61988230CF120E0B3
:1006A4003FEF4FE757E4C701B6010E94CB19181674
:1006B40094F420E030E040E251E4C501B4010E942A
:1006C400D0190E94C71684EF91E0FB013197F1F72E
:1006D4000197D9F754C2C701B6010E94C71602C0D8
:1006E40061E070E0CB010197F1F725E030E045E1EE
:1006F40051E060E08AE591E00E946B1885E0809308
:100704007A0182E491E00E944E17E1E08E2790E0A6
:10071400FC01EE0FFF1F8E0F9F1FFC01E055FE4FE3
:1007240082818F9381818F9380818F930E9452184D
:100734000F900F900F9020E030E040E85FE3C70196
:10074400B6010E94C61988230CF120E03FEF4FE761
:1007540057E4C701B6010E94CB19181694F420E09F
:1007640030E040E251E4C501B4010E94D0190E9476
:10077400C71684EF91E0FB013197F1F70197D9F7A0
:100784000DC0C701B6010E94C71605C061E070E044
:1007940002C061E070E0CB010197F1F7C1988CC110
:1007A400C19A20E030E04AE755E460E070E081E679
:1007B4009BE40E94D0194B015C0120E030E048E446
:1007C40052E40E94D4196B017C0120E030E040E83F
:1007D4005FE30E94C61988230CF120E03FEF4FE746
:1007E40057E4C701B6010E94CB19181694F420E00F
:1007F40030E040E251E4C501B4010E94D0190E94E6
:10080400C71684EF91E0FB013197F1F70197D9F70F
:10081400E7C1C701B6010E94C71602C061E070E0DB
:10082400CB010197F1F725E030E04BE151E060E0C6
:100834008AE591E00E946B1885E080937A0182E456
:1008440091E00E944E17E1E08E2790E0FC01EE0F4C
:10085400FF1F8E0F9F1FFC01E055FE4F82818F9377
:1008640081818F9380818F930E9452180F900F90F3
:100874000F9020E030E040E85FE3C701B6010E943A
:10088400C61988230CF120E03FEF4FE757E4C70176
:10089400B6010E94CB19181694F420E030E040E22F
:1008A40051E4C501B4010E94D0190E94C71684EF17
:1008B40091E0FB013197F1F70197D9F70DC0C7011A
:1008C400B6010E94C71605C061E070E002C061E095
:1008D40070E0CB010197F1F7C198EEC082E491E09A
:1008E4000E94DD18E1E08E2790E0FC01EE0FFF1F6F
:1008F4008E0F9F1FFC01E055FE4F82818F938181F3
:100904008F9380818F930E9452180F900F900F90B5
:10091400D3C0803259F404C0E5E0F1E0C0E0D0E097
:10092400108214C006E011E0C0E0D0E0C295D29578
:10093400D07FDC27C07FDC270E94C818C80FD11DD8
:10094400F801D8018D918D018111E3CF8181882334
:1009540009F479C17F01B2E0EB0EF11C00E010E074
:1009640002951295107F1027007F10270E94C81847
:10097400080F111DF70181917F018111F1CF809141
:10098400B8018F938091B7018F938091B6018F93B3
:100994000E9452180F900F900F900115110509F441
:1009A4008BC0DB5FA12CB12C0F2EF1E2CF2EF1E036
:1009B400DF2EF0E0EF2EF02DCE01955029911F92FD
:1009C4002F939F938F93EF92DF92CF920E945218AE
:1009D400FFEFAF1ABF0A8DB79EB707960FB6F8940C
:1009E4009EBF0FBE8DBFA016B10630F365C0803226
:1009F40059F404C0E5E0F1E000E010E0108217C013
:100A0400C6E0D1E000E010E002951295107F1027B7
:100A1400007F10270E94C818080F111DFE0189913C
:100A24008111E5CF04C0E5E0F1E000E010E0818150
:100A34008823C1F07F0192E0E90EF11C20E030E050
:100A4400E901C295D295D07FDC27C07FDC270E94C4
:100A5400C8189E01280F311DD7018D917D01811188
:100A6400EFCF02C020E030E0F801FB5F20833327A2
:100A74003F932F931F930F9380E391E0A0E0AF93F4
:100A84009F938F930E945218EDB7FEB737960FB617
:100A9400F894FEBF0FBEEDBF0FC02D3069F02223C6
:100AA40059F080E491E0A0E0AF939F938F930E946C
:100AB40052180F900F900F908CE491E0A0E0AF9348
:100AC4009F938F930E94521880E4E2E0F1E0DF01EB
:100AD4001D928A95E9F71092BE011092BD010F9004
:100AE4000F900F90CAC061E482E491E00E942A1939
:100AF40091E0892790E0FC01EE0FFF1FE80FF91F3A
:100B0400E055FE4F82818F9381818F9380818F93F3
:100B14000E9452180F900F900F9020E030E040E8B0
:100B24005FE3C701B6010E94C61988230CF0E6CC26
:100B3400FFCC61E482E491E00E949C1891E0892753
:100B440090E0FC01EE0FFF1FE80FF91FE055FE4F88
:100B540082818F9381818F9380818F930E94521819
:100B64000F900F900F9020E030E040E85FE3C70162
:100B7400B6010E94C61988230CF053CD6CCD25E034
:100B840030E045E151E060E08AE591E00E946B18B5
:100B940085E080937A0182E491E00E944E1791E00F
:100BA400892790E0FC01EE0FFF1FE80FF91FE055C5
:100BB400FE4F82818F9381818F9380818F930E94D6
:100BC40052180F900F900F9020E030E040E85FE360
:100BD400C701B6010E94C61988230CF0C0CDD9CD37
:100BE40025E030E04BE151E060E08AE591E00E94CD
:100BF4006B1885E080937A0182E491E00E944E179D
:100C040091E0892790E0FC01EE0FFF1FE80FF91F28
:100C1400E055FE4F82818F9381818F9380818F93E2
:100C24000E9452180F900F900F9020E030E040E89F
:100C34005FE3C701B6010E94C61988230CF02DCECC
:100C440046CEC0E0D0E08091B8018F938091B70187
:100C54008F938091B6018F930E9452180F900F903A
:100C64000F9001E010E09DCE80910601882349F3A6
:100C7400E5E0F1E0C0E0D0E06DCEDF91CF911F91CF
:100C84000F91FF90EF90DF90CF90BF90AF909F9027
:040C94008F900895A0
:100C9800A3EAB0E0E2E5F6E00C941B184C01590118
:100CA800C756DF4F488359836A83C959D040212CDE
:100CB800312C6E012BE8C20ED11C85E2782E26015C
:100CC80030E8632ECE018D569F4FC456DF4F99836F
:100CD8008883CC59D0409C0140E8CF55DF4F28830A
:100CE80039834A83C15AD040C756DF4F4881C95912
:100CF800D040C656DF4F5881CA59D040C556DF4F3D
:100D08006881CB59D040FA01849167FD808188239E
:100D180009F4C9C3CF57DF4F19821882C158D04090
:100D28008FEF9FEFCD57DF4F99838883C358D0400B
:100D3800CB57DF4F19821882C558D040A1E0B0E0E8
:100D4800AC0FBD1FC957DF4FB983A883C758D04020
:100D5800E0E8F0E0C757DF4FF983E883C958D0408F
:100D6800CA01A62FE12CF12CFC012491A7FD2081BA
:100D780021111BC0E114F10401F19701C4010E9483
:100D88009316C756DF4F88819981AA81C959D040E7
:100D98008E0D9F1DA11DF7FCAA95C756DF4F8883AE
:100DA8009983AA83C959D04008C00196A11D25324C
:100DB80009F3FFEFEF1AFF0AD7CFC756DF4F888135
:100DC8009981AA81C959D040FC012491A7FD2081AD
:100DD800253209F056C39C014A2F2F5F3F4F4F4FD2
:100DE800C256DF4F288339834A83CE59D040C7562D
:100DF800DF4F288339834A83C959D040C756DF4F0C
:100E080088819981AA81C959D040FC012491A7FD04
:100E180020812B3241F4CF57DF4F28813981C158C7
:100E2800D04024600BC02C32CCF02D3259F5CF576E
:100E3800DF4F28813981C158D0402160CF57DF4F1B
:100E480039832883C158D0400196A11DC756DF4F6A
:100E580088839983AA83C959D040D0CF203241F4DE
:100E6800CF57DF4F28813981C158D0402860E6CF5D
:100E7800233291F4CF57DF4F28813981C158D040B0
:100E88002061DCCF203341F4CF57DF4F28813981EF
:100E9800C158D0402260D2CF2A3299F50196A11DBF
:100EA800C756DF4F88839983AA83C959D040D50193
:100EB800ED91FC911197CF0102968D939C938081BF
:100EC8009181CB57DF4F99838883C558D04097FFCE
:100ED8003EC0CF57DF4F28813981C158D040B1E09B
:100EE8002B27CF57DF4F39832883C158D04091959E
:100EF80081959109CB57DF4F99838883C558D04096
:100F080026C0BC018A2F0E949E15CB57DF4F9983BC
:100F18008883C558D040C756DF4F288139814A8118
:100F2800C959D040F901849147FD8081082E000CF1
:100F3800990BC0970A9758F42F5F3F4F4F4FC756EA
:100F4800DF4F288339834A83C959D040E4CFCF572C
:100F5800DF4F88819981C158D04080FF07C08D7FBD
:100F6800CF57DF4F99838883C158D040C756DF4F8A
:100F780088819981AA81C959D040FC012491A7FD93
:100F880020812E3209F058C0CD57DF4F19821882C0
:100F9800C358D0409C014A2F2F5F3F4F4F4FC75631
:100FA800DF4F288339834A83C959D040F9015491C6
:100FB80047FD50815A32D1F40296A11DC756DF4F22
:100FC80088839983AA83C959D040D501ED91FC91B2
:100FD8001197CF0102968D939C9380819181CD5773
:100FE800DF4F99838883C358D04026C0842FB90126
:100FF8000E949E15CD57DF4F99838883C358D040F0
:10100800C756DF4F288139814A81C959D040F90133
:10101800849147FD8081082E000C990BC0970A9790
:1010280058F42F5F3F4F4F4FC756DF4F2883398300
:101038004A83C959D040E4CFCE0187569F4F0E94BA
:10104800BE14182FC756DF4F2881C959D040C6563D
:10105800DF4F8881CA59D040C556DF4F9881CB5998
:10106800D040E22FF82F849197FD8081082E000C44
:10107800990B0E9496198936910509F45AC0B4F45F
:101088008336910509F466C144F48532910509F463
:10109800A1C18136910529F1B3C18436910509F4BE
:1010A80048C0883691050CF42DC1AAC18037910536
:1010B80009F4CBC04CF48E36910509F419C18F366A
:1010C800910509F47CC09CC18537910509F454C089
:1010D8008837910509F496C08337910509F090C1C6
:1010E80058C1612F70E0A501C6010E94DD17892B48
:1010F80009F4B7C1C756DF4F88819981AA81C959B8
:10110800D0409C014A2F2F5F3F4F4F4FC756DF4FAC
:10111800288339834A83C959D040FC012491A7FD0B
:101128002081A601BE016F577F4FC4010E94DB19C1
:1011380095C1612F70E0950141E050E0C6010E9421
:101148004C0E892B09F48DC1C756DF4F88819981D0
:10115800AA81C959D0400196A11DC756DF4F88837F
:101168009983AA83C959D040A601BE016F577F4F02
:10117800C4010E948D0D72C1612F70E0950140E09D
:1011880050E0C6010E944C0E892B09F46AC1C7566B
:10119800DF4F88819981AA81C959D0400196A11D44
:1011A800C756DF4F88839983AA83C959D040A601BF
:1011B800BE016F577F4FC4010E9415144FC1612FA4
:1011C80070E0950140E050E0C6010E944C0E892B6A
:1011D80009F447C1C756DF4F88819981AA81C95947
:1011E800D0400196A11DC756DF4F88839983AA83F3
:1011F800C959D040A601BE016F577F4FC4010E9454
:1012080089122CC1612F70E0950140E050E0C601C1
:101218000E944C0E892B09F424C1C756DF4F8881E0
:101228009981AA81C959D0409C014A2F2F5F3F4F0D
:101238004F4FC756DF4F288339834A83C959D04057
:10124800FC012491A7FD20814BC0950140E050E0AE
:1012580060EF70E0C6010E944C0E892B09F401C1B1
:10126800C756DF4F88819981AA81C959D040019614
:10127800A11DC756DF4F88839983AA83C959D040D7
:1012880086E02DEE31E040E0F901DE01AD56BF4FBA
:10129800742F0E945819D6012C9111963C911197E0
:1012A80012964C91129713965C91139714966C9121
:1012B800149715967C91159716968C9116971796F4
:1012C8009C91A0E00E94651951F400E010E0CF5510
:1012D800DF4F288139814A81C15AD040B9C028E7F7
:1012E800A601BE016F577F4FC4010E945D0AB6C0B8
:1012F800612F70E09501A1014E0D5F1DC6010E948E
:10130800B311AFC0612F70E0A501C6010E94DD17BF
:10131800892B09F4A6C0C756DF4F88819981AA8115
:10132800C959D0409C014A2F2F5F3F4F4F4FC75696
:10133800DF4F288339834A83C959D040FC0124915F
:10134800A7FD2081A601BE016F577F4FC4010E94EF
:10135800DB1984C0103809F084C0C756DF4F888174
:101368009981AA81C959D0400196A11DC756DF4F5E
:1013780088839983AA83C959D040D501ED91FC91FE
:101388001197CF0102968D939C938081F6018083FB
:101398005BC0103809F065C0C756DF4F8881998156
:1013A800AA81C959D0400196A11DC756DF4F88832D
:1013B8009983AA83C959D040D501ED91FC91119721
:1013C800CF0103968D939C9320813181428100E067
:1013D80010E03EC0103809F044C0C756DF4F88817E
:1013E8009981AA81C959D0400196A11DC756DF4FDE
:1013F80088839983AA83C959D040F601708224C092
:10140800D6017C92C256DF4F288139814A81CE5954
:10141800D040C756DF4F288339834A83C959D04003
:10142800CF57DF4F19821882C158D040CB57DF4FB2
:1014380019821882C558D0408FEF9FEFCD57DF4FE4
:1014480099838883C358D04001E010E0462D92016B
:10145800BE016F577F4FC4010E94F3128E0D9F1D6E
:1014680011C0C756DF4F88819981AA81C959D040D8
:101478000196A11DC756DF4F88839983AA83C9594E
:10148800D040C7017101E80EF91EE214F3044CF4D0
:101498008FE490E090930101809300018FEF9FEF1C
:1014A80003C0170121CCC101CD55DF4FE2E10C94F7
:0214B8003718E3
:1014BA00A4E1B0E0E3E6FAE00C941B1898878F8366
:1014CA007A8369835C8B4B8B122FDB011296ED9129
:1014DA00FC91139714962D913C9115973E832D8379
:1014EA00ED90FC90119716962D903C901797F7FD6A
:1014FA0003C0E894E1F802C0E1E0F0E0C7018071BE
:10150A0099279A878987E4FE1FC0AB89BC892C91E9
:10151A0011963C91119712964C91129713965C91E1
:10152A00139714966C91149715967C9115971696A5
:10153A008C91169717969C91A0E00E94651921F04C
:10154A008D819E81029702C08D819E8197012870AC
:10155A0033273C872B87E3FC0197AB89BC894C90E6
:10156A0011965C90119712966C90129713967C9034
:10157A00139714968C90149715969C901597169617
:10158A00AC9016971796BC90A981BA811896CD90FF
:10159A00DC901997B1E0CB1AD108D101AC0DBD1D71
:1015AA001C929C838B839F01281B390B3E872D87B6
:1015BA00C70182709927988B8F87812F012E000C83
:1015CA00990BDC01A154B109BA8BA98B32E0C3167D
:1015DA00D10434F489859A85892B09F04CC073C0EB
:1015EA009201A301B401C501A0E00E94651981F12D
:1015FA00B1E0CB1AD108C2018F7099278A309105C0
:10160A0014F4C09602C0895A9F4FE989FA897A97D9
:10161A0048F49C012062215631092A31310510F41F
:10162A000E948519F101EC0DFD1D80832B813C81FF
:10163A00215031093C832B839201A301B401C501D6
:10164A0004E00E94FF1729013A014B015C01BECF59
:10165A008D859E85AB81BC818A0F9B1F1816190642
:10166A003CF21A161B060CF0B5CFEF85F889EF2B62
:10167A0009F0BECFAFCFAB89BC892C9111963C91B2
:10168A00119712964C91129713965C911397149690
:10169A006C91149715967C91159716968C911697BE
:1016AA0017969C91A0E00E94651969F0F101EC0D72
:1016BA00FD1D31971083B2E0CB1AD108F101EC0D70
:1016CA00FD1D80E38083EB85FC85EF2B41F0F1E083
:1016DA00CF1AD108F101EC0DFD1D80E28083A981AA
:1016EA00BA8118962D913C911997215031092C19DC
:1016FA003D09C20CD31CA60160E80D811E818F81B1
:10170A0098850E9443109C01EF81F8858081918120
:10171A0090FF09C0A981BA8112968D919C91139765
:10172A00821793070CF4C9016496E2E10C94371806
:10173A002F923F924F925F926F927F928F929F92D7
:10174A00AF92BF92CF92DF92EF92FF920F931F93C5
:10175A00CF93DF9300D000D0CDB7DEB7FC0140882D
:10176A0051886288738801E033243394212C809154
:10177A00200582FFBBC0F1E04F1A510861087108C9
:10178A0009F4B6C020E03BE147E35AE460E070E0C8
:10179A0081E69BE40E94D01920E030E040E85FE354
:1017AA000E94D4196B017C0120E030E040E85FE33D
:1017BA000E94C61988230CF494C020E034E244E75E
:1017CA005AE460E070E081E69BE40E94D01920E0D0
:1017DA0030E040E85FE30E94D4194B015C0120E04D
:1017EA003FEF4FE757E40E94CB1918160CF061C07F
:1017FA0020E030E04AE754E460E070E080E89FE3EC
:10180A000E94D0194B015C0120E030E04AE755E420
:10181A0060E070E081E69BE40E94D01969837A83D4
:10182A008B839C839B01AC01C501B4010E94D4192E
:10183A006B017C0120E030E040E85FE30E94C619BA
:10184A0088238CF120E03FEF4FE757E4C701B60148
:10185A000E94CB19181614F520E030E040E251E45A
:10186A00C501B4010E94D4190E94C7167B01672BD7
:10187A0009F438C020E030E040E251E469817A811D
:10188A008B819C810E94D0190E94C716CB010197B7
:10189A00F1F781E0E81AF108C9F724C0C701B601D7
:1018AA000E94C71602C0632D722DCB010197F1F772
:1018BA0019C020E030E04FE753E4C701B6010E94A7
:1018CA00CB19181644F4C501B4010E94C716CB01FE
:1018DA000197F1F74CCFC701B6010E94C716162F20
:1018EA0001C0102F812F8A95F1F741CF80E001C006
:1018FA0081E00F900F900F900F90DF91CF911F9181
:10190A000F91FF90EF90DF90CF90BF90AF909F9094
:10191A008F907F906F905F904F903F902F90089597
:10192A002F923F924F925F926F927F928F929F92E5
:10193A00AF92BF92CF92DF92EF92FF920F931F93D3
:10194A00CF93DF9300D000D0CDB7DEB7FC0144843B
:10195A0055846684778401E033243394212C809162
:10196A00200583FFBBC0F1E04F1A510861087108D6
:10197A0009F4B6C020E03BE147E35AE460E070E0D6
:10198A0081E69BE40E94D01920E030E040E85FE362
:10199A000E94D4196B017C0120E030E040E85FE34B
:1019AA000E94C61988230CF494C020E034E244E76C
:1019BA005AE460E070E081E69BE40E94D01920E0DE
:1019CA0030E040E85FE30E94D4194B015C0120E05B
:1019DA003FEF4FE757E40E94CB1918160CF061C08D
:1019EA0020E030E04AE754E460E070E080E89FE3FA
:1019FA000E94D0194B015C0120E030E04AE755E42F
:101A0A0060E070E081E69BE40E94D01969837A83E2
:101A1A008B839C839B01AC01C501B4010E94D4193C
:101A2A006B017C0120E030E040E85FE30E94C619C8
:101A3A0088238CF120E03FEF4FE757E4C701B60156
:101A4A000E94CB19181614F520E030E040E251E468
:101A5A00C501B4010E94D4190E94C7167B01672BE5
:101A6A0009F438C020E030E040E251E469817A812B
:101A7A008B819C810E94D0190E94C716CB010197C5
:101A8A00F1F781E0E81AF108C9F724C0C701B601E5
:101A9A000E94C71602C0632D722DCB010197F1F780
:101AAA0019C020E030E04FE753E4C701B6010E94B5
:101ABA00CB19181644F4C501B4010E94C716CB010C
:101ACA000197F1F74CCFC701B6010E94C716162F2E
:101ADA0001C0102F812F8A95F1F741CF80E001C014
:101AEA0081E00F900F900F900F90DF91CF911F918F
:101AFA000F91FF90EF90DF90CF90BF90AF909F90A3
:101B0A008F907F906F905F904F903F902F900895A5
:101B1A00ADE0B0E0E3E9FDE00C941B189A878987F1
:101B2A007C836B83FA01DB011296CD90DC901397CC
:101B3A0014968D919C9115979E838D83ED90FC90C0
:101B4A001197FA82E98216960D90BC91A02DB8875A
:101B5A00AF83208031804280538064807580868084
:101B6A0097808101B42DF52DE62D7B868C869D8686
:101B7A009101A201B301C401A0E00E9465194CF4CD
:101B8A000E943A198901B42FF52FE62F7B878C879B
:101B9A009D87D7FC04C0E894E1F8FA82E9829101B2
:101BAA00A201B301C401A0E0ED80FE800E94651984
:101BBA001CF0898182FF04C081E0E81AF10805C09F
:101BCA0083FF03C091E0E91AF108CE0101965C0196
:101BDA008AE0C82ED12C2B2F3F2F4E2F5B856C8588
:101BEA007D858B819C810E94050FFC019101A201D8
:101BFA00B301C401A0E00E9465191CF0898182FF2B
:101C0A0012C031970F8118850E0F1F1F9101A20173
:101C1A00B301C401A0E00E94651914F08BE201C06F
:101C2A008DE2D80108C083FF07C03197AF81B8851C
:101C3A00AE0FBF1F80E28C93E980FA80AB81BC8132
:101C4A0018962D913C911997215031092E1B3F0B63
:101C5A008F819885E80FF91FAF0160E80D811E8119
:101C6A0089859A850E9443109C01A985BA858D9120
:101C7A009C9190FF07C0EB81FC818281938182173E
:0E1C8A0093070CF4C9012D96E2E10C94371873
:101C98000F931F93CF93DF93FC01D9016838710527
:101CA80031F194F461387105B1F12CF460387105A3
:101CB80009F478C09FC06238710509F459C06438C6
:101CC800710509F46FC096C0603A710509F448C0FF
:101CD8002CF46039710509F44BC08CC0603C710567
:101CE80009F476C0603F710509F472C083C0CD91D4
:101CF800DC911197CE0102968D939C93452B39F078
:101D08009881892F880F880B908381835BC0888195
:101D18008083118268C0CD91DC911197CE01049621
:101D28008D939C93452B99F088819981AA81BB81D9
:101D3800AC01BD01770F440B542FBA018083918306
:101D4800A283B383448345834683478328C008819D
:101D580019812A813B81008311832283338345C003
:101D6800CD91DC911197CE0102968D939C9323C05F
:101D7800CD91DC911197CE0108968D939C93788133
:101D880069815A814B813C812D819E818F8170832D
:101D9800618352834383348325839683878381E0D9
:101DA80090E02AC0CD91DC911197CE0102968D93D7
:101DB8009C93452BA1F099812881892F880F880B46
:101DC8002083918382838383848385838683E6CF7C
:101DD800CD91DC911197CE0102968D939C93088149
:101DE800198100831183128213821482158216824C
:101DF8001782D5CF80E090E0DF91CF911F910F91AE
:021E080008953B
:101E0A00A2E1B0E0EBE0FFE00C941B18FC010A8BA6
:101E1A001B832C83732E642E552E462E7D83CC86EF
:101E2A00D886BF82AE82868197819B878A87D501B1
:101E3A004D915C91228133818085918501971C01A6
:101E4A0037FF02C021E030E0EA85FB85E80FF91F81
:101E5A0010824701E1E0F0E0FA83E983C9018E19B3
:101E6A009F099E878D87DA01A270BB27B88BAF873F
:101E7A00B885BB0FBB0BB98B1214130474F0A9817C
:101E8A00BA81AB2B09F05CC0AE81BF818D919C9168
:101E9A0011978F7E8D939C9353C02A893B814C81E5
:101EAA00572D662D752D842D9D81A0E00E94651900
:101EBA00B1F1E1E02E1A3108FC85F987AF2EB8841A
:101ECA00C988DC2CEC2CFC2C0C2D1C2D2A893B817E
:101EDA004C81572D662D752D842D9D810E944A199E
:101EEA00C90129839A83EA85FB85E20DF31D805D8A
:101EFA00808381E0881A91082A893B814C81572D79
:101F0A00662D752D842D9D810E944C192A8B3B8349
:101F1A004C83752E662E572E482E9D83ADCF8D8508
:101F2A009E85880D991D181619061CF21814190495
:101F3A000CF0A5CFEF85F889EF2B09F0BACF9FCF28
:0A1F4A00C1016296E2E10C94371821
:101F54008F929F92AF92BF92CF92DF92EF92FF92B5
:101F6400789487B3836087BBC09A20E030E04AE767
:101F740055E460E070E081E69BE40E94D0194B01D7
:101F84005C0120E030E048EC52E40E94D4196B017B
:101F94007C0120E030E040E85FE30E94C61988231A
:101FA4000CF120E03FEF4FE757E4C701B6010E9470
:101FB400CB19181694F420E030E040E251E4C50156
:101FC400B4010E94D0190E94C71688EE93E0FB0169
:101FD4003197F1F70197D9F73FC0C701B6010E94C5
:101FE400C71602C061E070E0CB010197F1F7C09819
:101FF40020E030E040E85FE3C701B6010E94C61963
:1020040088230CF120E03FEF4FE757E4C701B60106
:102014000E94CB19181694F420E030E040E251E419
:10202400C501B4010E94D0190E94C71688EE93E03E
:10203400FB013197F1F70197D9F71AC0C701B6012F
:102044000E94C71605C061E070E002C061E070E064
:10205400CB010197F1F70CC0C09820E030E040E8D4
:102064005FE3C701B6010E94C6198823ACF6EECF20
:10207400FF90EF90DF90CF90BF90AF909F908F90A4
:022084000895BD
:102086002F923F924F926F927F928F92AF92BF9212
:10209600CF92DF92EF92FF920F931F93CF93DF932E
:1020A600CDB7DEB766970FB6F894DEBF0FBECDBFCD
:1020B6005C013A01862E6901C701817099279C8BC4
:1020C6008B8BE0FC1DC020173107D4F47801EC1887
:1020D600FD08FE8AED8AA70191E1E916F10410F0E8
:1020E60040E150E060E270E0CE0101969A8B898B68
:1020F6000E947C1989899A891C0120E8422E0BC00E
:102106009601682DA301C5010E949316C016D1063B
:10211600ECF2C60125C090E1E916F10458F020E181
:1021260030E0642DA101C5010E94931680E1E81AF2
:10213600F108F1CF2D893E892F70332789899A8935
:10214600AC0160E8C5010E9493168B899C89892B96
:1021560031F49601682DA301C5010E949316C801AA
:1021660066960FB6F894DEBF0FBECDBFDF91CF9156
:102176001F910F91FF90EF90DF90CF90BF90AF909F
:0E2186008F907F906F904F903F902F90089514
:10219400CF92DF92EF92FF920F931F93CF93DF932F
:1021A40000D000D0CDB7DEB78C016A017B011A8262
:1021B40019821C821B8285B7806885BF88E380BF33
:1021C4009E012D5F3F4FAE014F5F5F4FC701B601C8
:1021D4000E9458138B819C810024969587950794BF
:1021E400969587950794982F802D29813A81822B83
:1021F400932B092E000CAA0BBB0BF8018087918747
:10220400A287B38760E070E885E290E0A7019601B9
:102214000E94BB17F8012487358746875787DA0160
:10222400C901B695A79597958795B695A79597955E
:102234008795808B918BA28BB38BC8010E94E61586
:10224400F82E811111C0F80184899589A689B7896E
:10225400AC01BD014460448B558B668B778B81FF49
:1022640003C0C8010E9427168F2D0F900F900F9066
:102274000F90DF91CF911F910F91FF90EF90DF901E
:04228400CF9008955A
:1022880010C00E94AC1958F00E94A51940F029F41A
:102298005F3F29F00C94BA1951110C94B4190C949D
:1022A800D8190E94991768F39923B1F3552391F32C
:1022B800951B550BBB27AA2762177307840738F0AD
:1022C8009F5F5F4F220F331F441FAA1FA9F335D00A
:1022D8000E2E3AF0E0E832D091505040E695001CBE
:1022E800CAF72BD0FE2F29D0660F771F881FBB1F78
:1022F800261737074807AB07B0E809F0BB0B802D56
:10230800BF01FF2793585F4F3AF09E3F510578F081
:102318000C94BA190C94B4195F3FE4F3983ED4F3C3
:10232800869577956795B795F7959F5FC9F7880F55
:10233800911D9695879597F90895E1E0660F771FA7
:10234800881FBB1F621773078407BA0720F0621B38
:0E235800730B840BBA0BEE1F88F7E095089507
:10236600CF93DF93DC01F90164387105D9F164F488
:102376006138710521F16238710509F440C0603891
:10238600710509F054C02EC060397105C1F184F49D
:102396006838710509F04BC0C081D181CE01029623
:1023A60091838083E881F981ED93FC9340833CC05F
:1023B600603A7105B9F0603C7105A1F038C0C08182
:1023C600D181CE01029691838083E881F981ED93D4
:1023D600FC93052E000C660B770B408351836283BA
:1023E600738322C0C081D181CE01029691838083FE
:1023F600E881F981ED93FC935183408315C0C08138
:10240600D181CE01029691838083E881F981ED9393
:10241600FC9351834083852F880F880B82838383A7
:10242600848385838683878381E090E002C080E091
:0824360090E0DF91CF910895C1
:10243E000FC00E94A51938F00E94AC1920F0952308
:10244E0011F00C94BA190C94D81911240C94B419D7
:10245E000E94991770F3959FC1F3950F50E0551F89
:10246E00629FF001729FBB27F00DB11D639FAA27DB
:10247E00F00DB11DAA1F649F6627B00DA11D661F2A
:10248E00829F2227B00DA11D621F739FB00DA11D4B
:10249E00621F839FA00D611D221F749F3327A00D05
:1024AE00611D231F849F600D211D822F762F6A2FA1
:1024BE0011249F5750409AF0F1F088234AF0EE0F06
:1024CE00FF1FBB1F661F771F881F91505040A9F733
:1024DE009E3F510580F00C94BA190C94B4195F3FCD
:1024EE00E4F3983ED4F3869577956795B795F7956F
:1024FE00E7959F5FC1F7FE2B880F911D96958795E7
:04250E0097F908959C
:10251200A2E0B0E0EFE8F2E10C941B181C014B01C1
:10252200FA01DB0112962D913C91139714964D906E
:102532005C9015978D919C9111979A838983169639
:102542006D907C90179737FD03C08D7F9A838983A6
:102552000081118122813381448155816681778195
:10256200FE0131965F0188E0C82ED12C7201C401B0
:102572000E94050F298124FF06C00197F301E80F8D
:10258200F91F20E32083298123FF06C00197F3016D
:10259200E80FF91F20E22083E980FA80D40118961F
:1025A2002D913C91199721503109281B390B860D29
:1025B200971DAC0160E88201C1010E9443109C0199
:1025C200F1018081918190FF08C0D40112968D9112
:1025D2009C911397821793070CF4C9012296E2E1AA
:0425E2000C94371806
:1025E6002F923F924F926F927F928F92AF92BF92AD
:1025F600CF92DF92EF92FF920F931F93CF93DF93C9
:10260600CDB7DEB727970FB6F894DEBF0FBECDBFA6
:102616006C017B013901842E980186EE282E81E01B
:10262600382E80E0482E87E0F101AE014F5F5F4F04
:10263600DA01742D0E945819F70102811381A480D2
:10264600B580E080F18061147104810419F43A01C7
:10265600F0E88F2E2115310529F4882DB3010E944B
:10266600B2189C0117FD04C00217130708F498015D
:102676008501682DA301C6010E94431027960FB657
:10268600F894DEBF0FBECDBFDF91CF911F910F91A2
:10269600FF90EF90DF90CF90BF90AF908F907F909C
:0A26A6006F904F903F902F90089521
:1026B000CF92DF92EF92FF920F931F93CF93DF930E
:1026C0006B017C01EA018901672B682B692B31F4CE
:1026D00019821882D9011D921C9242C060E070E7F5
:1026E00087E190E0A70196010E94BB17C90120383D
:1026F000B2E03B076CF1E0E0F0E09C01992314F4B8
:102700002F5F3F4FC901959587953196803822E01C
:1027100092079CF79C012B5F3F4FC9016AE070E074
:102720000E94F118309761F460FD08C0C90164E1AE
:1027300070E00E94F118E1E0F0E002C0E0E0F0E0BB
:102740006150710979836883D801ED93FC9308C0C7
:102750002B5F3F4FC9016AE070E00E94F118E4CF9F
:10276000DF91CF911F910F91FF90EF90DF90CF906D
:022770000895CA
:102772001F920F920FB60F9211242F933F934F93F4
:102782005F936F937F938F939F93AF93BF93CF93F7
:10279200DF93EF93FF93C2E4D1E08D811F928F9379
:1027A2008CE991E0A0E0AF939F938F930E9452181F
:1027B2008D811F928F9386EA91E0A0E0AF939F9361
:1027C2008F930E9452188D811F928F9380EB91E01C
:1027D200A0E0AF939F938F930E9452188091B8010B
:1027E2008F938091B7018F938091B6018F930E944E
:1027F20052188DB79EB742960FB6F8949EBF0FBE81
:102802008DBFFF91EF91DF91CF91BF91AF919F91DA
:102812008F917F916F915F914F913F912F910F9087
:082822000FBE0F901F901895E6
:10282A00A2E0B0E0EBE1F4E10C941B183C014B018F
:10283A00FA01DB0112962D913C91139714964D9053
:10284A005C9015978D919C9111979A83898316961E
:10285A002D903C90179737FD03C08D7F9A8389830B
:10286A00008111812281338144815581668177817A
:10287A00FE0131965F018AE0C82ED12C7201C40193
:10288A000E94050FE980FA80D40118962D913C9197
:10289A00199721503109281B390B820D931DAC0160
:1028AA0060E88201C3010E9443109C01F301808108
:1028BA00918190FF08C0D40112968D919C91139733
:1028CA00821793070CF4C9012296E2E10C94371897
:1028DA0088249924F401E401B0E49F93AA279A1565
:1028EA008B049C04ED05FE05CF05D007A10798F4DB
:1028FA00AD2FDC2FCF2FFE2FE92D982C892E982F64
:10290A00872F762F652F542F432F322F2227B85027
:10291A0031F7BF9127C01B2EBF91BB27220F331F50
:10292A00441F551F661F771F881F991F881C991CF3
:10293A00EE1FFF1FCC1FDD1FAA1FBB1F8A149B049B
:10294A00EC05FD05CE05DF05A007B10748F08A189A
:10295A009B08EC09FD09CE09DF09A00BB10B216028
:10296A001A94E1F62EF49401AF01BE01CD01000CD8
:02297A000895BE
:10297C00CF92DF92EF92DC0190E0292F30E0220F12
:10298C00331F6901032E000CEE086E2DA601405377
:10299C005E4F6F4F6A01E62EFA018491E7FC80814D
:1029AC0081110DC02F5F3F4F032E000C440B2053A1
:1029BC003E4F4F4FF901849147FD808124C0CD904B
:1029CC00DD90EC901297F6014491E7FC4081841362
:1029DC0015C02F5F3F4F032E000C440B20533E4F6E
:1029EC004F4FF901949147FD90815FEFC51AD50ABD
:1029FC00E50ACD92DD92EC92129701C09F5F9B305D
:0E2A0C0008F4BBCF892FEF90DF90CF90089594
:102A1A000F931F93CF93DF93DB012D913C91119775
:102A2A0030FF25C017964D915C91189715962D91F8
:102A3A003C9116974217530778F41296ED91FC9140
:102A4A001397808312962D913C9113972F5F3F4FD6
:102A5A0013963C932E93129717962D913C911897A3
:102A6A002F5F3F4F18963C932E93179715C01D96CC
:102A7A00ED91FC911E97309719F48FEF9FEF0CC0E0
:102A8A008B01EC010995892BC1F7F80187819085A3
:102A9A00019690878783CE01DF91CF911F910F9185
:022AAA0008958D
:102AAC00CF93DF930F92CDB7DEB70E94AA0F0E948F
:102ABC009E1960E875E280E090E00E945D1640E8A7
:102ACC0055E260E070E082E491E00E94CA1081114E
:102ADC000BC08AEB91E0A0E0AF939F938F930E9481
:102AEC0052180F900F900F9019820F2EF2ECCF2EE0
:102AFC00F1E0DF2EF0E0EF2EF02D0E94FA00BE0187
:102B0C006F5F7F4F82E491E00E94F6168823A9F351
:102B1C008981882391F31F928F93EF92DF92CF924A
:102B2C000E9452180F900F900F900F900F90E5CFBE
:102B3C00CF939B01482FF901849147FD808180320E
:102B4C00C9F1682F082E000C770B6950710965309C
:102B5C00710580F18B3249F5A0E0B0E02F5F3F4F5B
:102B6C004F4F02C0A0E0B0E080E090E0CAE0F90175
:102B7C00649147FD6081062E000C770B6053710940
:102B8C006A30710560F4C89FF001C99FF00D1124E3
:102B9C002F5F3F4F4F4FCF01861B970BE8CFAB2BCF
:102BAC0069F491958195910909C08D32D9F6A1E00E
:102BBC00B0E0D4CF2F5F3F4F4F4FBDCFCF91089593
:102BCC00CF93DF93EC01E0E0F5E014A683E084A75B
:102BDC0099E195A798E396A717A690E497A79CE48C
:102BEC00988392A39CE690A790EE96AF81AFCE010E
:102BFC000E949D0B811122C0CE010E94950C811167
:102C0C001DC0E0E0F5E09FEF92AF93AF90AD9D83D8
:102C1C0092AD9E8393AD9F8394A5906894A79BE3FC
:102C2C009B8392AF9DE69C8393AF4C895D896E89A3
:102C3C007F8943604C8B5D8B6E8B7F8BDF91CF914B
:022C4C000895E9
:102C4E00FC0184899589A689B78982FF2EC08B7F66
:102C5E00848B958BA68BB78B12828081A0E0B5E01A
:102C6E0092968C9392978181DC968C93DC978281DD
:102C7E0097968C9397978085D4968C93D4979E969F
:102C8E008C919E97982F9F73408551856285738591
:102C9E007695679557954795769567955795479588
:0C2CAE00407C842F892B9E968C93089507
:102CBA002AB128692AB920B5266820BDDC01CB01D2
:102CCA00880F991FAA1FBB1F880F991FAA1FBB1F16
:102CDA009C01AD01220F331F441F551F220F331FC2
:102CEA00441F551F60E070E081EE90E00E94BB1720
:102CFA008FEF820F89B9DA01C9010197A109B109D8
:102D0A00892F9A2FAB2FBB2780BDE091B901F09193
:0C2D1A00BA018FE991E091838083089555
:102D26006F927F928F92CF92DF92EF920F931F93C3
:102D3600CF93DF938C016A01E62EE9013A01862ED4
:102D4600620E731E811C37FD8A94C614D704E804EC
:102D560079F0F6018491E7FC8081B801082E000C19
:102D6600990B0E940D158FEFC81AD80AE80AEDCF05
:102D7600CE01DF91CF911F910F91EF90DF90CF9011
:082D86008F907F906F9008957B
:102D8E000E94A11788F09F5798F0B92F9927B75135
:102D9E00B0F0E1F0660F771F881F991F1AF0BA95F1
:102DAE00C9F714C0B13091F00E94B319B1E0089583
:102DBE000C94B319672F782F8827B85F39F0B93F75
:102DCE00CCF3869577956795B395D9F73EF49095A4
:0E2DDE008095709561957F4F8F4F9F4F0895A0
:102DEC000F931F93CF93DF939C019091200595FF38
:102DFC001FC08B01E901C9010E949D0B811119C0F3
:102E0C0080E280932005CE010E949D0B811111C0A0
:102E1C00E0E0F5E092AD9923ECF7E0E0F5E080819D
:102E2C00D8018C9380E880A3CE010E949D0B01C039
:0C2E3C0080E0DF91CF911F910F9108956D
:102E48001F921FB61F9211242F933F938F939F9326
:102E5800EF93FF938091BE01282F30E09CB1F901D8
:102E6800EE5FFE4F90839D3041F4F901EE5FFE4F17
:102E7800108281E08093BD0103C08F5F8093BE0103
:102E8800FF91EF919F918F913F912F911F901FBEBE
:042E98001F901895DA
:102E9C00CF93DF93EC01E0E0F5E080A186FFFDCF5E
:102EAC0088AD882371F0FE01789680E090E0219146
:102EBC00DC01BB5F2C93019628AD30E082179307A1
:102ECC00B4F3CE010E949D0B811106C088E0809363
:0E2EDC002005CE010E949D0BDF91CF9108953D
:102EEA00990F0008550FAA0BE0E8FEEF1616170611
:102EFA00E807F907C0F012161306E407F50798F079
:102F0A00621B730B840B950B39F40A2661F0232B91
:102F1A00242B252B21F408950A2609F4A140A6950D
:082F2A008FEF811D811D089548
:102F320057FD9058440F551F59F05F3F71F0479568
:102F4200880F97FB991F61F09F3F79F0879508954D
:102F5200121613061406551FF2CF4695F1DF08C06C
:102F6200161617061806991FF1CF86957105610589
:042F72000894089522
:102F7600A1E21A2EAA1BBB1BFD010DC0AA1FBB1F77
:102F8600EE1FFF1FA217B307E407F50720F0A21BE9
:102F9600B30BE40BF50B661F771F881F991F1A9456
:102FA60069F760957095809590959B01AC01BD0180
:042FB600CF010895AA
:102FBA00FA0160387105CCF0623871051CF063388B
:102FCA00710599F4A081B1819D012C5F3F4F318336
:102FDA0020834D915D916D917C91FC0140835183D9
:102FEA006283738381E090E0089580E090E0089521
:102FFA0097FB10F8169400080F93083098F00850C1
:10300A00232F342F452F562F672F782F892F902D56
:10301A00F4CF059497958795779567955795479532
:0C302A00379527950A95AAF70F91089595
:103036002F923F924F925F926F927F928F929F92C2
:10304600AF92BF92CF92DF92EF92FF920F931F93B0
:10305600CF93DF93CDB7DEB7CA1BDB0B0FB6F89461
:08306600DEBF0FBECDBF0994CF
:10306E002A88398848885F846E847D848C849B840A
:10307E00AA84B984C884DF80EE80FD800C811B8118
:10308E00AA81B981CE0FD11D0FB6F894DEBF0FBE47
:06309E00CDBFED01089515
:1030A400A0E0B0E0E8E5F8E10C942B189E012B5F5A
:1030B4003F4FF9014191519161919F01E091B90113
:1030C400F091BA01808191810E948418E2E00C940D
:0230D40047189B
:1030D600CF92DF92EF926A01E62EDC01280F391FAC
:1030E600A217B30751F0F6014491E7FC40814D93D6
:1030F6004FEFC41AD40AE40AF3CFEF90DF90CF90D3
:0231060008952A
:10310800A2E0B0E0EAE8F8E10C9429188C013A83CF
:1031180029839E012F5F3F4F0E944C06F8012081B2
:1031280024FF02C08FEF9FEF2296E4E00C9445182D
:103138000F931F93CF93662361F0C62F8C010E94D3
:10314800950C811107C0C0933505C8010E94950CE4
:0C31580001C080E0CF911F910F910895FD
:10316400CF92DF92EF926B01E82EA82FCB01FC01E6
:103174002491A7FD2081222319F00196A11DF7CFE8
:0C3184008C199D09EF90DF90CF9008950A
:10319000982F80ED890F8A3078F08FEB890F863079
:1031A00018F489EC890F08958FE9890F863018F497
:0A31B00089EA890F08958FEF089552
:1031BA00CF93DF93EC0180E480932005CE010E9437
:1031CA009D0B811106C081E080932005CE010E94EB
:0831DA009D0BDF91CF910895D8
:1031E20097FB072E16F4009407D077FD09D00E94B2
:1031F200051907FC05D03EF4909581959F4F0895DF
:08320200709561957F4F08955E
:10320A00AA1BBB1B51E107C0AA1FBB1FA617B70702
:10321A0010F0A61BB70B881F991F5A95A9F780951E
:08322A009095BC01CD0108954F
:10323200092E0394000C11F4882352F0BB0F40F4C2
:10324200BF2B11F460FF04C06F5F7F4F8F4F9F4F02
:023252000895DD
:103254009C0190912005923449F4C901E0E0F5E025
:10326400608328E020A30E949D0B089581E00895C7
:1032740060957095809590953095409550952195E1
:103284003F4F4F4F5F4F6F4F7F4F8F4F9F4F08956B
:10329400689401C0E8948F929F92CF93DF930E9429
:0C32A4006D14DF91CF919F908F900895E2
:1032B000992777FD05C005900D920197E1F70895D4
:0A32C00001900D920197E1F70895C7
:1032CA000024A7FD00942A17300540055005600523
:0832DA007005800590050895C0
:1032E200EC010E94E3190E94E219CE010E94E41946
:0632F200CE010E94E0196C
:1032F800FC01480F591FE417F50711F06193FBCF44
:02330800089526
:10330A009C01215631092A31310510F48F7599270C
:02331A00089514
:10331C005D9BFECF8CB95E9BFECF80E090E0089564
:10332C009C01215431092A31310508F48062089539
:0E333C0085B7836085BF8BB780648BBF089513
:0E334A0000240A9416161706180609060895A0
:0E33580000240A9412161306140605060895A2
:0E336600E894BB2766277727CB0197F90895D7
:0C33740097F99F6780E870E060E0089522
:0C338000EE0FFF1F0590F491E02D099462
:0A338C000E94751708F481E008950F
:0A3396000E94751708F48FEF0895E8
:0833A0000E9444110C9419195C
:0833A8000E941F120C94191978
:0633B0009FEF80EC089580
:0633B60080E090E00895A4
:0433BC000C9400006D
:0433C0000E947F00E8
:0233C40008956A
:0233C600089568
:0233C800089566
:1033CA005401005901005E01006301006801006DAB
:1033DA0001007201007701007C0100810100860171
:0433EA00008B010053
:1033EE00030000000000000000000000008E190025
:0133FE0000CE
:0633FF009301009901009A
:0334050090010033
:02340800BB0106
:00000001FF
