:1000000045C0000060C000005EC000005CC0000091
:100010005AC0000058C0000056C0000054C0000084
:1000200052C0000050C000004EC000004CC0000094
:100030004AC0000048C0000046C0000044C00000A4
:1000400042C0000040C000003EC000003CC00000B4
:100050003AC0000038C0000036C0000034C00000C4
:1000600032C0000030C000002EC000002CC00000D4
:100070002AC0000028C0000026C0000024C00000E4
:1000800022C0000020C000001EC0000011241FBEBE
:10009000CFEFD0E1DEBFCDBF11E0A0E0B1E0E2ECF8
:1000A000F1E000E00BBF02C007900D92AA32B10749
:1000B000D9F721E0AAE2B1E001C01D92AC32B2074B
:1000C000E1F75DD07CC09CCFDC01962F2C9130E015
:1000D000F901EE0FFF1FE20FF31FEE0FFF1FE050BD
:1000E000FF4F0190F081E02D608111968C9121E00D
:1000F00030E0082E02C0220F331F0A94E2F7209549
:100100002623692F70E002C0660F771F8A95E2F7F9
:10011000622B60830895DC01962F2C9130E0F90169
:10012000EE0FFF1FE20FF31FEE0FFF1FE050FF4F18
:100130000280F381E02D608111968C9121E030E006
:10014000082E02C0220F331F0A94E2F720952623BF
:10015000692F70E002C0660F771F8A95E2F7622B65
:10016000608308951F93CF93DF93EC01142FACDFCE
:10017000612FCE01D0DFDF91CF911F91089540E034
:1001800061E08AE291E0EEDF61E08AE291E0C3DFC4
:100190002FE38DE093E0215080409040E1F700C0D4
:1001A000000060E08AE291E0B6DF2FE38DE093E0AB
:1001B000215080409040E1F700C00000E5CFF89466
:0201C000FFCF6F
:1001C2003A003B0039003700380036003400350071
:1001D2003300310032003000220023002100610090
:0A01E2006200200064006500630065
:00000001FF
