S00F0000746573744370702E7372656332
S113000012C02CC02BC02AC029C028C027C026C0BB
S113001025C024C023C022C021C020C01FC01EC0D0
S11300201DC01CC01BC011241FBECFE5D4E0DEBF21
S1130030CDBF10E0A0E6B0E0E6EAF4E002C005902F
S11300400D92A037B107D9F720E0A0E7B0E001C0D6
S11300501D92A437B207E1F7E2D023C2D1CF00D179
S1130060089520E07CD0089592D00895FC01108278
S1130070118282818160828382818D7F828308954F
S1130080DC01962F2C9130E0F901EE0FFF1F2E0FAB
S11300903F1FF901EA59FF4FE081F0E040A11196BA
S11300A05C91119721E030E0B901052E02C0660F82
S11300B0771F0A94E2F76095862F8423692F70E0F6
S11300C002C0660F771F5A95E2F7682B60A311965A
S11300D00C90119702C0220F331F0A94E2F7622397
S11300E012968C91129760FB80F912968C93089566
S11300F0DC01962F2C9130E0F901EE0FFF1F2E0F3B
S11301003F1FF901EA59FF4FE181F0E060A1119628
S11301108C91119741E050E0082E02C0440F551F06
S11301200A94E2F740954623692F70E002C0660FF7
S1130130771F8A95E2F7642B60A3262F30E011968F
S11301400C90119702C0359527950A94E2F7129600
S11301508C91129720FB81F912968C930895CF937A
S1130160DF93EC01688349838A8120FB80F98A83C9
S11301708A818D7F8A836A816170CE0181DF6A8181
S113018066956170CE01B4DFDF91CF910895DC01F3
S11301902C9130E0F901EE0FFF1F2E0F3F1FF901E4
S11301A0EA59FF4FE281F0E080A190E011960C90B3
S11301B0119702C0959587950A94E2F712969C913F
S11301C0129780FB91F912969C93129712968C9138
S11301D08695817008950F931F93CF93DF93EC015D
S11301E045DFCE01039642DFCE0106963FDFCE0106
S11301F009963CDF2C9607E010E00F3F8FEF1807BD
S113020031F0CE0133DF239601501109F6CFDF918F
S1130210CF911F910F91089521E0A1DF0895CF930D
S1130220DF93CDB7DEB7A4970FB6F894DEBF0FBE49
S1130230CDBF83E090E013DF7C0140E060E0ECDFC1
S113024083E090E00CDF8C0141E060E00ADFCE0146
S11302500196C1DFC80108DF682FC70149DFFACF63
S11302600F931F93CF93DF938230910510F482E0B4
S113027090E0E0917200F091730020E030E0A0E0A3
S1130280B0E0309719F14081518102811381481700
S11302905907C8F08417950769F4109731F012963E
S11302A00C93129713961C9327C00093720010931B
S11302B0730022C02115310519F04217530718F4B1
S11302C09A01BD01EF01DF01F801DBCF21153105F2
S11302D0F9F0281B390B2430310580F48A819B8185
S11302E06115710521F0FB019383828304C090930F
S11302F0730080937200FE01329644C0FE01E20F47
S1130300F31F8193919322503109398328833AC092
S11303102091700030917100232B41F420916200F0
S1130320309163003093710020937000209160003D
S1130330309161002115310541F42DB73EB740914C
S1130340640050916500241B350BE0917000F0911E
S11303507100E217F307A0F42E1B3F0B281739078F
S113036078F0AC014E5F5F4F2417350748F04E0F0D
S11303705F1F50937100409370008193919302C06A
S1130380E0E0F0E0CF01DF91CF911F910F9108954C
S1130390CF93DF93009709F481C0FC013297138255
S11303A01282A0917200B0917300109781F42081A1
S11303B03181820F931F20917000309171002817B2
S11303C0390751F5F0937100E093700067C0ED01B7
S11303D020E030E0CE17DF0740F44A815B819E01C4
S11303E041155105F1F0EA01F5CFD383C283408171
S11303F05181840F951FC817D90759F488819981B1
S1130400840F951F0296918380838A819B819383B5
S113041082832115310529F4F0937300E09372006F
S11304203DC0E901FB83EA8349915991C40FD51F6B
S1130430EC17FD0761F480819181840F951F02966A
S1130440E90199838883828193819B838A83E0E095
S1130450F0E012968D919C911397009719F0FD018D
S1130460DC01F7CF8D919C9111979D012E5F3F4F39
S1130470820F931F20917000309171002817390763
S113048069F4309729F4109273001092720002C03C
S113049013821282B0937100A0937000DF91CF9108
S10904A00895F894FFCF5B
S11304A600007400200017181614151311121000FA
S9030000FC
