:1000000012C02CC02BC02AC029C028C027C026C0BF
:1000100025C024C023C022C021C020C01FC01EC0D4
:100020001DC01CC01BC011241FBECFE5D4E0DEBF25
:10003000CDBF10E0A0E6B0E0ECE7F1E002C0059033
:100040000D92A637B107D9F720E0A6E7B0E001C0CE
:100050001D92A637B207E1F786D08EC0D1CFDC0162
:100060002C91233048F012968C9112978E7F8260EB
:1000700012968C9380E00895623028F530E0F90103
:10008000EE0FFF1FE20FF31FE60FF11DEE0FFF1F34
:10009000E05AFF4F0190F081E02D208111963C91B4
:1000A000119781E090E0032E02C0880F991F0A94F7
:1000B000E2F78095822350E002C0440F551F3A9525
:1000C000E2F7482B40838FEF860F823030F58C911A
:1000D00090E0FC01EE0FFF1FE80FF91FE60FF11D86
:1000E000EE0FFF1FE05AFF4F0190F081E02D80815D
:1000F00021E030E011960C90119702C0220F331FBF
:100100000A94E2F72823217012968C91129720FB13
:1001100080F912968C93822F089580E008951F93A2
:10012000CF93DF93EC01142F462F60E098DF412F2F
:1001300061E0CE0194DFDF91CF911F91089540E0FF
:1001400062E08DDF0895462F61E089DF0895CF9347
:10015000DF93EC01F4DF61E0811160E0CE01F3DFB9
:10016000DF91CF91089540E061E082E790E0D7DF32
:0C01700082E790E0ECDFFCCFF894FFCFBA
:10017C0037003800360034003500330031003200CF
:06018C0030000007000036
:00000001FF
