:100000000C9438010C94A0040C9455010C945501E7
:100010000C9455010C9455010C9455010C94550108
:100020000C9455010C9455010C9455010C945501F8
:100030000C9455010C943A040C9455010C94550100
:100040000C9455010C9455010C9455010C94CA0460
:100050000C9455010C9455010C9455010C945501C8
:100060000C9455010C9455010C9455010C945501B8
:1000700000002110422063308440A550C660E77024
:10008000088129914AA16BB18CC1ADD1CEE1EFF1CC
:100090003112100273325222B5529442F772D66274
:1000A000399318837BB35AA3BDD39CC3FFF3DEE31C
:1000B0006224433420040114E664C774A4448554C4
:1000C0006AA54BB528850995EEE5CFF5ACC58DD56C
:1000D0005336722611163006D776F6669556B44614
:1000E0005BB77AA719973887DFF7FEE79DD7BCC7BC
:1000F000C448E5588668A778400861180228233864
:10010000CCC9EDD98EE9AFF9488969990AA92BB90B
:10011000F55AD44AB77A966A711A500A333A122AB3
:10012000FDDBDCCBBFFB9EEB799B588B3BBB1AAB5B
:10013000A66C877CE44CC55C222C033C600C411C03
:10014000AEED8FFDECCDCDDD2AAD0BBD688D499DAB
:10015000977EB66ED55EF44E133E322E511E700E53
:100160009FFFBEEFDDDFFCCF1BBF3AAF599F788FFB
:100170008891A981CAB1EBA10CD12DC14EF16FE1DB
:100180008010A100C230E320045025404670676013
:10019000B9839893FBA3DAB33DC31CD37FE35EF32B
:1001A000B1029012F322D232354214527762567263
:1001B000EAB5CBA5A89589856EF54FE52CD50DC57B
:1001C000E234C324A01481046674476424540544B3
:1001D000DBA7FAB79987B8975FE77EF71DC73CD7CB
:1001E000D326F2369106B016576676761546345603
:1001F0004CD96DC90EF92FE9C899E9898AB9ABA91B
:100200004458654806782768C018E1088238A32852
:100210007DCB5CDB3FEB1EFBF98BD89BBBAB9ABB6A
:10022000754A545A376A167AF10AD01AB32A923AA2
:100230002EFD0FED6CDD4DCDAABD8BADE89DC98DBA
:10024000267C076C645C454CA23C832CE01CC10CF2
:100250001FEF3EFF5DCF7CDF9BAFBABFD98FF89F0A
:10026000176E367E554E745E932EB23ED10EF01E42
:1002700011241FBEC0E0D5E0DEBFCDBF11E0A0E07D
:10028000B1E0E2E1FCE002C005900D92A230B107BE
:10029000D9F711E0A2E0B1E001C01D92AB3FB10778
:1002A000E1F70E9444040C9407060C940000FC0142
:1002B00060830895FC018081089580E090E190932F
:1002C000100180930F019093A6018093A50180E413
:1002D00090E190930C0180930B019093A80180937F
:1002E000A7011092080110920701109212011092BA
:1002F000110110920A011092090110920601109248
:10030000050108950895CF93DF936115710509F4F0
:1003100075C0882309F072C080911101909112017B
:10032000892B09F06AC0A0910F01B09110016132D0
:10033000710520F440E0C0E3D0E041C020E030E0AF
:1003400040E350E08091030190E0849FF001859F9D
:10035000F00D949FF00D1124E20FF31FED5EFE4FA0
:1003600080818C932F5F3F4F2032310559F7709376
:10037000080160930701309312012093110182EF6D
:1003800088BB82E692968C939297E091A501F091BA
:10039000A60180A18A34E9F788E02CC0809103018E
:1003A00090E08C9FF0018D9FF00D9C9FF00D11242B
:1003B000E20FF31FED5EFE4F80818C934F5F242F81
:1003C00030E02617370750F3709308016093070158
:1003D000709312016093110182EF88BB82E69296BE
:1003E0008C939297E091A501F091A60180A18A34A7
:1003F000E9F78AE090968C9301C0FFCFDF91CF910F
:10040000089580EF88BBE0910F01F09110018AE61A
:1004100082A3089582EF88BBE0910F01F091100153
:1004200082E682A30895E091A501F091A60180A142
:100430008A34E9F70895E0910F01F09110018AE004
:1004400080A30895E0910F01F091100188E080A34E
:100450000895E0910F01F091100180E480A30895C8
:10046000E0910F01F091100180E880A30895E091E0
:10047000A501F091A60180A186FFFDCF0895E0E0DF
:10048000F0E1F0931001E0930F01F093A601E093E7
:10049000A50110920801109207011092120110920A
:1004A000110110920A011092090110920601109296
:1004B000050188E084A780E682A385E581A382E127
:1004C00085A788E386A721E024AB80EB87A79FEF71
:1004D00096A390A780E787A321A794A395A388E874
:1004E00084A783E081AF8CE782AF8EE883AF80E49E
:1004F00080A380EF88BB8AE682A30895EF92FF92E3
:100500000F931F93CF93DF93A091A501B091A60104
:10051000D8968C91D897DA96EC90DA97DB969C91E6
:10052000DB97F82E83FF96C095FF11C0109208014B
:1005300010920701109212011092110180EF88BBF6
:10054000E0910F01F09110018AE682A383C096FD2D
:1005500079C094FD7FC090FF7DC0609111017091C2
:1005600012014091070150910801461B570B41327F
:10057000510568F1C0910F01D091100120E030E0E9
:1005800040E350E08091030190E0849FF001859F5B
:10059000F00D949FF00D1124ED5EFE4FE20FF31F5E
:1005A000E60FF71F808188832F5F3F4F2032310590
:1005B00049F7605E7F4F709312016093110190962E
:1005C0008C9190978A34D9F788E088A343C041156D
:1005D0005105C1F1C0910F01D091100120E030E030
:1005E00000E310E08091030190E0809FF001819F83
:1005F000F00D909FF00D1124ED5EFE4FE20FF31F02
:10060000E60FF71F808188832F5F3F4F2417350740
:1006100048F31092080110920701109212011092F3
:10062000110190968C9190978A34D9F78AE088A32B
:10063000809103018F5F80930301823058F0109204
:10064000030108C0109208011092070110921201D4
:1006500010921101F2FEA8C0E7FE5FC09B968C913C
:100660009B97382F20E09A964C919A97809105019C
:100670009091060155E0880F991F5A95E1F7281BC4
:10068000390B240F311DE4E7F1E0B9016D587E4FBD
:1006900005C08C918193480F409373014091730181
:1006A000E617F707B1F78C911082F901EC58FE4F6D
:1006B0001082D9011196FD01EC58FE4F1082AB5803
:1006C000BE4F8C93840F80937301819511968C9308
:1006D0002C5F3F4F80E064E771E0A9010E94F803BE
:1006E00010920A0110920901109206011092050160
:1006F000E0910F01F091100180E880A380E480A3D5
:100700009091020180910301981709F44DC080E097
:1007100060E370E00E94830147C0E0FE45C0209185
:100720000501309106012115310511F41092730174
:10073000E4E7F1E09C91919380917301890F80939C
:10074000730181E0E439F807A9F7232BB9F480910C
:100750007401803799F480917501813079F480912A
:100760007601833159F480917701803A11F480E267
:1007700003C0803C19F480E48093A90180E064E721
:1007800071E040E250E00E94F803809105019091F1
:10079000060101969093060180930501E0910F01F7
:1007A000F091100180E880A3DF91CF911F910F910C
:1007B000FF90EF90089583E885BF16BE88E380BF61
:1007C0008FEF87BB88BB80E090E90197F1F780EF5E
:1007D00088BB8BEF81BB12BA929A0895882321F4CB
:1007E0005D9BFECF6CB90895159BFECF63B908954C
:1007F000DF92EF92FF920F931F93CF93DF93D82E48
:100800007A018B01C0E0D0E007C08D2DF801619125
:100810008F010E94EE032196CE15DF05B4F3DF9120
:10082000CF911F910F91FF90EF90DF90089510BC32
:1008300087E089B91BB888E98AB986E880BD8CB1A0
:1008400008951092F8011092F7011092AB011092E6
:10085000AA011092FA011092F90190E49FBD8CE078
:100860008EBD80E78BBD8FE78ABD1DBC1CBC99BFC8
:1008700018BE08951F920F920FB60F9211240F9079
:100880000FBE0F901F90189580E28093A9011092DF
:10089000F3011092F20180E78093130181E08093CD
:1008A000140183E180931501E7E1F1E0119281E009
:1008B000E334F807D9F71092F1011092ED0110928C
:1008C000EE011092EF011092F0011092EC011092E3
:1008D000F5011092F4010E94DB0384EF91E020E720
:1008E00031E0F9013197F1F70197D9F710BC87E0B2
:1008F00089B91BB888E98AB986E880BD8CB10E94A5
:10090000210484EF91E020E731E0F9013197F1F71C
:100910000197D9F70E943F0284EF91E020E731E090
:10092000F9013197F1F70197D9F78BB780648BBF45
:100930007894109202011092030110920401FFCFEB
:100940001F920F920FB60F9211242F933F934F9344
:100950005F936F937F938F939F93AF93BF93EF9327
:10096000FF938BB78F7B8BBF0E947E028BB7806417
:100970008BBFFF91EF91BF91AF919F918F917F912D
:100980006F915F914F913F912F910F900FBE0F90FC
:100990001F9018951F920F920FB60F9211242F934C
:1009A0003F934F935F936F937F938F939F93AF93F7
:1009B000BF93CF93DF93EF93FF935CB18091EC01F2
:1009C000882309F06FC08091F101E82FF0E0E35136
:1009D000FE4F5083282F2F5F2093F1018091ED016E
:1009E000803709F04AC08091EE01813009F045C09E
:1009F0008091EF01833109F040C06091F001862FB2
:100A000090E08F7790708032910519F080349105D5
:100A1000A1F584E090E09093F5018093F40141E02A
:100A20004093EC012091020130E080E390E0289FA8
:100A3000D001299FB00D389FB00D1124AD5EBE4F7F
:100A400080E78C9311964C931197F901EE0FFF1FDD
:100A5000E20FF31F84E0EE0FFF1F8A95E1F7EB5ED4
:100A6000FE4F83E1808313965C9367FF02C082E3AD
:100A700001C080E38093000178C0243008F475C081
:100A80008091EE018093ED018091EF018093EE0162
:100A90008091F0018093EF011092F00183E0809348
:100AA000F10163C0409102012091F4013091F50100
:100AB000842F90E0C0E3D0E08C9FF0018D9FF00D7B
:100AC0009C9FF00D1124E20FF31FED5EFE4F50834B
:100AD0002F5F3F4F3093F5012093F4018091000187
:100AE00090E02817390709F040C080E3489FC00113
:100AF00011248D5E9E4F60E370E00E94E7056091D7
:100B00000201462F50E04F5F5F4F4C9FF0014D9F19
:100B1000F00D5C9FF00D112441505040ED5EFE4FF2
:100B20002081318182179307A1F44C9FF0014D9FE2
:100B3000F00D5C9FF00D1124ED5EFE4F83818F77E9
:100B40008383862F8F5F80930201823010F0109292
:100B500002011092EC011092F1011092ED0110923D
:100B6000EE011092EF011092F001FF91EF91DF91F1
:100B7000CF91BF91AF919F918F917F916F915F9135
:100B80004F913F912F910F900FBE0F901F9018958E
:100B90000F931F93CF93DF938C01C0E0D0E008C088
:100BA000F801EC0FFD1F80E060810E94EE032196AA
:100BB000F80101900020E9F73197E01BF10BCE1707
:100BC000DF0770F3DF91CF911F910F910895CF93BD
:100BD000DF93EC01A0E0B0E04FEF5FEF11C0342FE6
:100BE0002227E52FFF27899190E0E827F927EE0FCC
:100BF000FF1FE059FF4F459154914227532711960B
:100C0000A617B70760F3CA01DF91CF910895F89452
:100C1000FFCF3000FFFFFFFFFFFFFFFFFFFFFFFFE2
:100C2000FFFFFFFFFFFFFFFFFFFFFFFFFFFFFFFFD4
:100C3000FFFFFFFFFFFFFFFFFFFFFFFFFFFFFFFFC4
:100C4000FFFFFFFFFFFFFFFFFFFFFFFFFFFFFFFFB4
:100C5000FFFFFFFFFFFFFFFFFFFFFFFFFFFFFFFFA4
:00000001FF
