S00B00006C63642E73726563E6
S113000045C0000060C000005EC000005CC000008D
S11300105AC0000058C0000056C0000054C0000080
S113002052C0000050C000004EC000004CC0000090
S11300304AC0000048C0000046C0000044C00000A0
S113004042C0000040C000003EC000003CC00000B0
S11300503AC0000038C0000036C0000034C00000C0
S113006032C0000030C000002EC000002CC00000D0
S11300702AC0000028C0000026C0000024C00000E0
S113008022C0000020C000001EC0000011241FBEBA
S1130090CFEFD0E1DEBFCDBF11E0A0E0B1E0E0E6FC
S11300A0FCE000E00BBF02C007900D92A034B10742
S11300B0D9F721E0A0E4B1E001C01D92A739B2074D
S11300C0E1F795D2CBC59CCFDC01962F2C9130E083
S11300D0F901EE0FFF1FE20FF31FEE0FFF1FE050B9
S11300E0FF4F0190F081E02D608111968C9121E009
S11300F030E0082E02C0220F331F0A94E2F7209545
S11301002623692F70E002C0660F771F8A95E2F7F5
S1130110622B60830895DC01962F2C9130E0F90165
S1130120EE0FFF1FE20FF31FEE0FFF1FE050FF4F14
S11301300280F381E02D608111968C9121E030E002
S1130140082E02C0220F331F0A94E2F720952623BB
S1130150692F70E002C0660F771F8A95E2F7622B61
S113016060830895FC01208130E0F901EE0FFF1F48
S1130170E20FF31FEE0FFF1FE050FF4F0480F581E5
S1130180E02D208130E0A901FC01018002C05595D9
S113019047950A94E2F740FF02C081E0089580E0A9
S11301A008951F93CF93DF93EC01142F8DDF612FFC
S11301B0CE01B1DFDF91CF911F910895AF92BF922D
S11301C0DF92EF92FF920F931F93CF93DF938C01F3
S11301D07C0184E1E80EF11C40E060E0C701E1DF4E
S11301E060E0C80198DF80E090E001C001968436A9
S11301F09105E4F3580182E0A80EB11C61E0C50149
S11302008ADFE801249660E0CE0185DF80E090E09B
S113021001C0019684369105E4F361E0CE017BDFF1
S1130220C701A0DFD82EF801EA5AFF4F808180FD74
S11302300DC060E0CE016FDF80E090E001C0019668
S113024084369105E4F361E0CE0165DFD110D9CFA6
S113025060E0C50160DF80E090E001C00196843673
S11302609105E4F361E0CE0156DF80E090E001C047
S1130270019684369105E4F340E061E0C70191DF23
S113028080E090E001C0019684369105E4F3DF91AB
S1130290CF911F910F91FF90EF90DF90BF90AF909F
S11302A00895EF92FF921F93CF93DF93EC01162FE3
S11302B07C0184E0E80EF11C61E0C7012CDFFE0143
S11302C0EA5AFF4F808180FF17C0612F6170CE0111
S11302D0069621DF11FB662760F9CE0108961BDF25
S11302E012FB662760F9CE010A9615DF13FB662719
S11302F060F9CE010C960FDF14FB662760F9CE017E
S11303000E9609DF15FB662760F9CE01409603DFE0
S113031016FB662760F9CE014296FDDE17FB6627C1
S113032060F9CE014496F7DE60E0C701F4DEDF91A8
S1130330CF911F91FF90EF9008951F93CF93DF9378
S1130340EC01162F642FE7DE60E0CE010296E3DEB7
S1130350FE01EA5AFF4F808180FD0AC0612F607F51
S1130360CE019FDF612F6295607FCE019ADF03C0CB
S1130370612FCE0196DFDF91CF911F910895CF9326
S1130380DF93EC0140E0D9DFCE0118DFDF91CF919C
S11303900895611101C060E241E0CFCF089546960F
S11303A020E2FC0111922A95E9F70895CF92DF9299
S11303B0EF92FF920F931F93CF93DF9300D000D05F
S11303C0CDB7DEB77C0180E8898380EC8A8380E93D
S11303D08B8380ED8C83B7016A5C7F4F40E250E0F1
S11303E0C701469659D1892B21F532C0E1E0F0E0EE
S11303F0EC0FFD1FEC0DFD1D6081C701C0DF00E0A7
S113040010E010C0F601E295F295F07FFE27E07F40
S1130410FE27EE0DFF1DE00FF11F6689C701B9DF4E
S11304200F5F1F4F003111056CF38FEFC81AD80A04
S113043002C0C12CD12C82E0C816D104BCF280E2E7
S1130440F7017696D701D69601900D928A95E1F739
S11304500F900F900F900F90DF91CF911F910F91FC
S1130460FF90EF90DF90CF9008950F931F93CF9359
S1130470DF93CDB7DEB70F8118858A8520E1829F8F
S1130480C00111242985820F911D4696AE01435F58
S11304905F4F6B857C85800F911F0BD1C80186DF70
S11304A0DF91CF911F910F910895AF92BF92CF9298
S11304B0DF92EF92FF920F931F93CF93DF93CDB709
S11304C0DEB70D851E85680186E5C80ED11CF601D0
S11304D080819F8590FB80F9808388899989F801C0
S11304E0918380838A899B89938382837E01F6E149
S11304F0EF0EF11C8C899D89F8019583848340E07B
S113050061E0C8014EDE40E061E0C801029649DEC8
S113051040E061E0C801049644DEF601808180FD7C
S113052019C01EC05701F2E0AF0EB11CC6010396FC
S1130530880F991F800F911FF70120813181FC01E1
S11305403183208340E061E02CDEFFEFCF1ADF0A25
S1130550750102C0C12CD12C84E0C816D10414F357
S11305606894CC24C2F8D12C17C05701E2E0AE0E37
S1130570B11CC6010396880F991F800F911FF701C4
S113058020813181FC013183208340E061E009DE78
S1130590FFEFCF1ADF0A750188E0C816D1042CF3E7
S11305A0F801EA5AFF4F808180FD07C062E0C8016C
S11305B0E6DE68E2C801E3DE03C068E3C801DFDE0B
S11305C06CE0C801DCDE66E0C801D9DE61E0C80188
S11305D0D6DE60E8C801D3DEDF91CF911F910F9181
S11305E0FF90EF90DF90CF90BF90AF90089581E09F
S11305F097E09F938F9396E09F938F9395E09F93BB
S11306008F9394E09F938F9392E09F931F928F9385
S11306101F921F921F921F9280E491E09F938F93E9
S113062044DF8DB79EB741960FB6F8949EBF0FBEB8
S11306308DBF00E010E080E491E0B1DE8AE291E059
S11306409F938F931F921F92C0E4D1E0DF93CF93C7
S11306500CDF78018FEFE81AF80A1F930F9383E3F6
S113066091E09F938F9381E08F931F92DF93CF93B9
S1130670FCDE8FE39DE023E0815090402040E1F7D1
S113068000C000008DB79EB70E960FB6F8949EBFBB
S11306900FBE8DBF8701CFCFFB01DC0104C08D915C
S11306A00190801921F441505040C8F7881B990BE0
S11306B008950F931F93CF93DF93CDB7DEB72E9793
S11306C00FB6F894DEBF0FBECDBF8C0186E08C83DD
S11306D01A8309838FEF9FE79E838D83CE01019652
S11306E010D0EF81F885E00FF11F10822E960FB61F
S11306F0F894DEBF0FBECDBFDF91CF911F910F9154
S113070008952F923F924F925F926F927F928F92B1
S11307109F92AF92BF92CF92DF92EF92FF920F938C
S11307201F93CF93DF93CDB7DEB72B970FB6F89413
S1130730DEBF0FBECDBF6C017B018A01FC011782B5
S11307401682838181FFBFC1CE0101963C01F6016F
S11307509381F70193FD859193FF81917F01882314
S113076009F4ADC1853239F493FD859193FF8191EC
S11307707F01853221F4B60190E0D6D1E8CF912CE7
S1130780212C312CFFE1F315D8F08B3279F038F4B9
S1130790803279F08332A1F4232D20611DC08D3283
S11307A061F0803369F4232D216016C0832D8260AB
S11307B0382EE32DE4603E2E2AC0F32DF8601DC0D0
S11307C037FC2DC020ED280F2A3040F08E32B9F4CA
S11307D036FC75C1232D2064322E19C036FE06C0A6
S11307E08AE0989E200D1124922E11C0EAE02E9EDC
S11307F0200D1124222EF32DF0623F2E08C08C36DA
S113080021F4832D8068382E02C0883641F4F70124
S113081093FD859193FF81917F018111B3CF982F2F
S11308209F7D9554933028F40C5F1F4F9FE3998369
S11308300DC0833631F0833771F0833509F055C02C
S113084020C0F801808189830E5F1F4F8824839420
S1130850912C530112C02801F2E04F0E511CF801F3
S1130860A080B18036FE03C0692D70E002C06FEF36
S11308707FEFC5014ED14C018201F32DFF773F2E4E
S113088015C0280122E0420E511CF801A080B1805D
S113089036FE03C0692D70E002C06FEF7FEFC50123
S11308A02DD14C01F32DF0683F2E820133FC19C089
S11308B0822D90E088169906A0F4B60180E290E0BB
S11308C033D12A94F5CFF50137FC859137FE819118
S11308D05F01B60190E028D121102A9421E0821A08
S11308E091088114910479F7E1C0843611F08936B6
S11308F039F5F80137FE07C06081718182819381E7
S11309000C5F1F4F08C060817181072E000C880B9B
S1130910990B0E5F1F4FF32DFF763F2E97FF09C0F3
S113092090958095709561957F4F8F4F9F4FF0689C
S11309303F2E2AE030E0A30133D1882E861844C02C
S1130940853731F4232D2F7EB22E2AE030E025C0E6
S1130950932D997FB92E8F36C1F018F4883579F02C
S1130960AEC0803719F0883721F0A9C0E92FE061C3
S1130970BE2EB4FE0DC0FB2DF460BF2E09C034FEA4
S11309800AC0292F2660B22E06C028E030E005C038
S113099020E130E002C020E132E0F801B7FE07C0F8
S11309A060817181828193810C5F1F4F06C06081D9
S11309B0718180E090E00E5F1F4FA301F1D0882E7B
S11309C08618FB2DFF773F2E36FE0DC0232D2E7F7C
S11309D0A22E891458F434FE0BC032FC09C0832DB6
S11309E08E7EA82E05C0B82CA32C03C0B82C01C041
S11309F0B92CA4FE0FC0FE01E80DF11D80818033E7
S1130A0021F49A2D997EA92E09C0A2FE06C0B394A2
S1130A10B39404C08A2D867809F0B394A3FC10C063
S1130A20A0FE06C0B21480F4280C922C9B180DC0B2
S1130A30B21458F4B60180E290E076D0B394F8CFC3
S1130A40B21418F42B1802C0982C212CA4FE0FC049
S1130A50B60180E390E068D0A2FE16C0A1FC03C0FA
S1130A6088E790E002C088E590E0B6010CC08A2DCA
S1130A70867851F0A1FE02C08BE201C080E2A7FC9F
S1130A808DE2B60190E050D0891430F4B60180E3D1
S1130A9090E04AD09A94F8CF8A94F301E80DF11DBE
S1130AA08081B60190E040D08110F6CF222009F475
S1130AB04ECEB60180E290E037D02A94F7CFF6010B
S1130AC08681978102C08FEF9FEF2B960FB6F89423
S1130AD0DEBF0FBECDBFDF91CF911F910F91FF906D
S1130AE0EF90DF90CF90BF90AF909F908F907F90CA
S1130AF06F905F904F903F902F900895FC01059068
S1130B00615070400110D8F7809590958E0F9F1F0B
S1130B100895FC016150704001900110D8F7809550
S1130B2090958E0F9F1F08950F931F93CF93DF937C
S1130B30FB01238121FD03C08FEF9FEF2CC022FF17
S1130B4016C046815781248135814217530744F4E6
S1130B50A081B1819D012F5F3F4F318320838C930E
S1130B60268137812F5F3F4F3783268314C08B0143
S1130B70EC01FB010084F185E02D0995892BE1F658
S1130B80D80116968D919C911797019617969C9370
S1130B908E931697CE01DF91CF911F910F910895F7
S1130BA0FA01AA27283051F1203181F1E8946F939A
S1130BB06E7F6E5F7F4F8F4F9F4FAF4FB1E03ED040
S1130BC0B4E03CD0670F781F891F9A1FA11D680FDE
S1130BD0791F8A1F911DA11D6A0F711D811D911D11
S1130BE0A11D20D009F468943F912AE0269F112486
S1130BF03019305D3193DEF6CF010895462F4770EA
S1130C00405D4193B3E00FD0C9F7F6CF462F4F7044
S1130C10405D4A3318F0495D31FD4052419302D0A2
S1130C20A9F7EACFB4E0A695979587957795679548
S1130C30BA95C9F700976105710508959B01AC0148
S1130C400A2E06945795479537952795BA95C9F76F
S1130C50620F731F841F951FA01D0895F894FFCF82
S1130C603A003B00390037003800360034003500C4
S1130C7033003100320030002200230021006100E3
S1130C80620020006400650063004C434420313658
S1130C90583200434F554E5453203A2025640000E7
S9030000FC
