S01200006C63646B65796D656E752E73726563E1
S113000045C0000061C000005FC000005DC000008A
S11300105BC0000059C0000057C0000055C000007C
S113002053C0000051C000004FC000004DC000008C
S11300304BC0000049C0000047C0000045C000009C
S1130040F1C7000041C000000C9446083DC0000008
S11300503BC0000039C0000037C0000035C00000BC
S113006033C0000031C000002FC000002DC00000CC
S11300702BC0000029C0000027C0000025C00000DC
S113008023C0000021C000001FC0000011241FBEB7
S1130090CFEFD0E1DEBFCDBF14E0A0E0B1E0E8E9EE
S11300A0FBE100E00BBF02C007900D92AC33B10737
S11300B0D9F725E0ACE3B4E001C01D92AA31B20740
S11300C0E1F7C4D30C94CA0D9BCFDC01962F2C917D
S11300D030E0F901EE0FFF1FE20FF31FEE0FFF1FD9
S11300E0EF58FD4F0280F381E02D608111968C91D1
S11300F021E030E0082E02C0220F331F0A94E2F7F9
S113010020952623692F70E002C0660F771F8A9519
S1130110E2F7622B60830895DC012C9130E0F90151
S1130120EE0FFF1FE20FF31FEE0FFF1FEF58FD4FFF
S11301300190F081E02D5081262F30E011960C9033
S113014002C0220F331F0A94E2F7252B2083642F69
S1130150BCCF0895DC012C9130E0F901EE0FFF1FB4
S1130160E20FF31FEE0FFF1FEF58FD4F0480F581E0
S1130170E02D408121E030E0C90111960C9002C0CD
S1130180880F991F0A94E2F784230895CF93DF938D
S1130190EC01E0DF61E0811160E0CE0196DFDF91E8
S11301A0CF9108950F931F93CF93DF93EC018C01AC
S11301B002571F4FF80160816170069686DFF801CF
S11301C0608166956170CE0108967FDFF8016081D9
S11301D062FB662760F9CE010A9677DFF801608139
S11301E063FB662760F9CE010C966FDF249661E00D
S11301F0CE016BDF60E0CE0168DFDF91CF911F910C
S11302000F910895EF92FF920F931F93CF93DF9373
S11302107C018C01045F1F4F40E060E0C8017CDF7B
S113022061E0C701029651DF09C061E0E70124964D
S1130230CE014BDF000060E0CE0147DFC8018ADF5A
S11302408111F3CF40E061E0C80166DFDF91CF9117
S11302501F910F91FF90EF900895EF92FF921F93DB
S1130260CF93DF93EC01162F61E02FDF60E0CE0126
S113027002962BDF7E018EE8E80EF11C812F829519
S11302808F70F7018083CE018DDF1F70F70110831B
S1130290CE0188DF0000CE01B5DFDF91CF911F9141
S11302A0FF90EF900895EF92FF921F93CF93DF9307
S11302B0EC01162F60E009DF60E0CE01029605DF55
S11302C07E018EE8E80EF11C812F82958F70F70174
S11302D08083CE0167DF1F70F7011083CE0162DFD8
S11302E0DF91CF911F91FF90EF9008950E9620E437
S11302F0FC0111922A95E9F70895CF93DF93CDB7C6
S1130300DEB7888520E1829FC00111242F81820FEE
S1130310911D0E96AE01455F5F4F69857A852D81EB
S11303203E81820F931F0E94F50ADF91CF910895B9
S11303300F931F93CF93DF938C0140E061E0ECDED9
S113034040E061E0C8010296E7DE40E061E0C801F8
S11303500496E2DE40E061E0C8010696DDDE40E09E
S113036061E0C8010896D8DE40E061E0C8010A9661
S1130370D3DE40E061E0C8010C96CEDEC0E0D0E000
S113038007C0FE01EA5FFE4F6081C8018CDF219641
S1130390C530D105B4F3F8013E9680E4DF011D9227
S11303A08A95E9F7D801A25BBF4F80E401900D92D2
S11303B08A95E1F78FE493EC0197F1F700C0000010
S11303C0DF91CF911F910F910895EF92FF920F93B8
S11303D01F93CF93DF938C01BC01625F7F4F40E496
S11303E050E0825B9F4F0E94830A892BA1F5F8019C
S11303F0E157FF4F8081982F9F7082958F709813DB
S11304002CC042C0ED2EF12CF701E55FFE4F608158
S1130410C80149DFC0E00FC0F701E295F295F07F13
S1130420FE27E07FFE27E00FF11FEC0FF11D66852C
S1130430C80113DFCF5FC03178F3F701E55FFE4FEA
S11304408081F801E157FF4F60816F70680FC80128
S11304502ADFDF5F03C0D0E001C0D0E0D43090F2E7
S1130460F801E157FF4F80818F70982F9295907F0C
S1130470892B8083D801A25BBF4F80E4E158F10946
S113048001900D928A95E1F7DF91CF911F910F9121
S1130490FF90EF900895DC01169625E2EFE8F2E074
S11304A001900D922A95E1F7FC01E857FF4F8081F6
S11304B0833411F481E0089580E008958BE1E5EB45
S11304C0F2E0A0E5B4E001900D928A95E1F7809105
S11304D0D204833411F481E0089580E0089588E122
S11304E0E0EDF2E0A0E5B4E001900D928A95E1F729
S11304F08091D204833411F481E0089580E008955A
S113050088E1E8EEF2E0A0E5B4E001900D928A956E
S1130510E1F78091D204833411F481E0089580E0FE
S1130520089587E1E0E0F3E0A0E5B4E001900D92E6
S11305308A95E1F78091D204833411F481E008951F
S113054080E008958DE1E7E1F3E0A0E5B4E00190F7
S11305500D928A95E1F78091D204833411F481E0FD
S1130560089580E008958EE1E4E3F3E0A0E5B4E0CB
S113057001900D928A95E1F78091D204833411F4AD
S113058081E0089580E0089580913D04813091F0E8
S113059020F0823009F450C07EC08EE394E0FDD494
S11305A060E087ED91E091DD80913D048F5F809361
S11305B03D0471C09091D204953551F48091D501D8
S11305C09091D60101969093D6018093D50113C0E2
S11305D0943461F48091D5019091D601009759F03B
S11305E001979093D6018093D50105C0953419F4F1
S11305F08F5F80933D048091D5019091D601893E0F
S1130600934020F01092D6011092D5018091D6012A
S11306108F938091D5018F9382E593E09F938F937D
S113062080E594E09F938F93B2D70F900F900F9033
S11306300F900F900F902FC08091D6018F938091CF
S1130640D5018F9385E693E09F938F9380E594E0A3
S11306509F938F939CD76091D5017091D60180E0D0
S113066090E0B6D5AB01BC0121E08EE394E039D42F
S11306708FE39DE023E0815090402040E1F700C0EB
S1130680000010923D040F900F900F900F900F9068
S11306900F9081E008958091D204833421F4109264
S11306A03D0481E0089580E00895CF93DF9389EDC0
S11306B091E050DD811102C0D0E001C0D5E48BEDA2
S11306C091E048DD8111D5E58DED91E043DD8111A7
S11306D0D4E48FED91E03EDD8111D3E4C0913C047C
S11306E0C13099F018F0C23019F126C0DD2329F188
S11306F081E08C0F80933C0420E040E050E068EC03
S113070072E483E494E0EDD318C083E494E04BD422
S1130710C82F882391F0DD2339F080913C048F5F4A
S113072080933C04C0E009C010923C04C0E005C0C2
S113073010923C04CD2F01C0C0E08C2FDF91CF91EB
S11307400895AF92BF92CF92DF92FF920F931F93BF
S1130750CF93DF93CDB7DEB7C250D1400FB6F89434
S1130760DEBF0FBECDBFF82E092F5B016E0123E063
S1130770C20ED11C80E091E0F6019C01119221503F
S11307803040E1F78F2D902FB1DDF501019000206D
S1130790E9F73197AF014A195B09B501C601C0D623
S11307A0AE014F5F5F4F63EB72E0C601C9D620E034
S11307B011E0120F9F938F932F931F920F93FF9229
S11307C09CDDAE014F5F5F4F63EB72E080E090E031
S11307D0B7D6212F0F900F900F900F900F900F907E
S11307E0009731F7CE5FDE4F0FB6F894DEBF0FBE31
S11307F0CDBFDF91CF911F910F91FF90DF90CF90EC
S1130800BF90AF900895CF93DF93C82FD92F6EDD9B
S113081089E793E09F938F931F921F92DF93CF9367
S11308206CDD82E893E09F938F9381E08F931F9216
S1130830DF93CF9362DD8DB79EB70C960FB6F89415
S11308409EBF0FBE8DBFDF91CF91089517D481EE67
S113085091E06EDD40E060E08FED91E05DDC40E032
S113086060E08DED91E058DC40E060E08BED91E0DC
S113087053DC40E060E089ED91E04EDC40E061E073
S113088087ED91E049DC6091D5017091D60180E05B
S113089090E09ED4AB01BC0121E08EE394E021D32F
S11308A08AE494E03DD08FE091E090934B048093F0
S11308B04A0480E895E228D422D4C82FF6DEC82B57
S11308C08EE394E070D3882319F087ED91E05EDC29
S11308D06C2F8AE494E062D1811104C081EE91E02E
S11308E092DF1AC040E450E060E974E080E594E0EF
S11308F00AD6892B89F080E594E034D480E4E0E5DD
S1130900F4E0A0E9B4E001900D928A95E1F760E586
S113091074E081EE91E015DF81EE91E056DDCCCFFD
S1130920FC01369620E4DF01322F1D923A95E9F757
S1130930E05CFF4FDF011D922A95E9F7089580E0FE
S11309400895AF92BF92CF92DF92EF92FF920F93EE
S11309501F93CF93DF93DC01CD91DC910D890023AC
S113096021F0013009F4B3C000C16C015C01B6E0B0
S1130970AB0EB11C80E4F50111928A95E9F78D81E3
S11309808F938C818F938DE194E09F938F93BF928B
S1130990AF92FDD5F601EA57FF4F918380830F9004
S11309A00F900F900F900F900F9010E07AC08885F1
S11309B018133CC0488159812E81812F90E0820F09
S11309C0911DFC01EE0FFF1F9C01220F331F220F0C
S11309D0331F220F331FE20FF31FE40FF51F7601BD
S11309E026E8E20EF11CD7012D913C9141814F93F1
S11309F040814F939F938F9388E194E09F938F93CB
S1130A00C501820F931F9F938F93C1D5F701208156
S1130A103181820F931F918380838DB79EB708968F
S1130A200FB6F8949EBF0FBE8DBF3AC0488159815E
S1130A308E81212F30E0280F311DF901EE0FFF1FA9
S1130A40C901880F991F880F991F880F991FE80FF4
S1130A50F91FE40FF51F760196E8E90EF11CD701A2
S1130A608D919C9141814F9340814F933F932F935C
S1130A7029E134E03F932F938A0D9B1D9F938F931D
S1130A8086D5F70120813181820F931F9183808362
S1130A908DB79EB708960FB6F8949EBF0FBE8DBF54
S1130AA01F5F8985181708F482CFF601EA57FF4FB4
S1130AB08081918140E450E0481B590B60E070E074
S1130AC08A0D9B1D36D58D898F5F8D8B51C0FC019E
S1130AD0E857FF4F80818434E9F488858F5F8887E5
S1130AE09985891708F0188688854F8184130FC06B
S1130AF02E812F5F2E838150888730E0892F90E0EC
S1130B00841B91098217930714F41E8218861D8A88
S1130B1000E02EC08535D1F48885811112C08E8104
S1130B20882321F081508E8318860DC089859F818A
S1130B30A82FA91B9A2F0AF490E09E8381508887DE
S1130B4002C0815088871D8A00E012C0853431F4C8
S1130B5098858E81890F8C871D8A0AC0833439F465
S1130B608C8981608C8B1D8A03C000E001C000E089
S1130B70802FDF91CF911F910F91FF90EF90DF9025
S1130B80CF90BF90AF900895FC0114861086168212
S1130B9084898E7F848B1586158A0895CF92DF927F
S1130BA0EF92FF920F931F93CF93DF9300D000D067
S1130BB0CDB7DEB7FC01E857FF4F6083DC010D9130
S1130BC01C9111970115110521F013961C930E9396
S1130BD01297F801F584F2E0FF1609F44DC06C0198
S1130BE0FF1530F0FF2069F021E0F21689F0FAC019
S1130BF083E0F81609F444C0A4E0FA1609F483C0AB
S1130C00F1C0653409F0EEC0F394F801F586EAC04A
S1130C100115110569F1D8011F968C91882319F1EA
S1130C20AE014F5F5F4FC6018ADE8823C1F044E006
S1130C3050E0B801615F7F4FCE01019664D4892BE7
S1130C4021F4F394F801F5860EC08BE1E1E2F4E0BF
S1130C50D601169601900D928A95E1F704C0F3949B
S1130C60D8011D96FC92F80185858F5F8587BAC0EF
S1130C70D8011D961C92B6C0F394F801F586B2C053
S1130C80C6015FDE882309F4ADC0F601369680E420
S1130C90DF011D928A95E9F7D80154968C915497F7
S1130CA0837021F154968C9154978E7F8D7F549646
S1130CB08C93549712968D919C911397892B81F064
S1130CC0D6018D919C91DC0112962D913C91139744
S1130CD0D6012D933C9383E0D9011D968C9306C0D5
S1130CE0F6018281938150DF81E07EC0D8011D9698
S1130CF08C911D978F5F1D968C9380E4DF011D926C
S1130D008A95E9F76FC0F80120813181848590E0EC
S1130D10DC01AA0FBB1F880F991F880F991F880F2A
S1130D20991F8A0F9B1FD901A80FB91F12968C9186
S1130D3012978823A1F01796ED90FC901897D7018D
S1130D4013961C930E931297C7011EDFF601F182CE
S1130D50E08281E0D7011D968C93870143C01396EE
S1130D60ED91FC91149715968D919C911697099588
S1130D708823C1F180E4F6013696DF011D928A953D
S1130D80E9F7F80120813181848590E0FC01EE0FC0
S1130D90FF1F880F991F880F991F880F991F8E0FA7
S1130DA09F1FF901E80FF91F8185823049F08330D4
S1130DB089F08130B9F482E0D8011D968C9312C079
S1130DC0C801E2DEF6010281138182E0D8011D969A
S1130DD08C9308C0C801D8DEF60102811381D801C2
S1130DE01D961C92F80185850F900F900F900F901F
S1130DF0DF91CF911F910F91FF90EF90DF90CF90F3
S1130E000895CF93DF93E0914804F09149041DC005
S1130E10A481B581109789F0CD91DC911197288137
S1130E2039810190F081E02D80819181281B390B5B
S1130E302330310548F001960CC00190F081E02D7B
S1130E4080819181019605C0FD01309709F781E009
S1130E5090E0DF91CF9108950F931F93CF93DF9389
S1130E608C01CFDFF8019183808384818B7F8D7F18
S1130E708483C0914804D091490486E090E022D252
S1130E80DC01009749F111961C930E9313961C9262
S1130E901E92129715961C921E921497209741F455
S1130EA0909349048093480417C00C80DD81C02DC1
S1130EB0E881F98140815181F801208131812150FB
S1130EC031094217530789F78C819D8115969C93AC
S1130ED08E931497BD83AC83DF91CF911F910F91B3
S1130EE008958F929F92AF92BF92DF92EF92FF92FA
S1130EF00F931F93CF93DF937C014A015B01D22EA2
S1130F00FC0180819181892B11F4C701A5DFC09177
S1130F104804D091490433C008811981F801208123
S1130F203181F701808191812817390729F5C5019D
S1130F30B40122D1F80173836283E881F981848149
S1130F40D0FA80F98483E881F98184818460848380
S1130F50E881F98182819381892B21F484818260E3
S1130F60848303C084818D7F8483E881F9818281B5
S1130F7093819B838A8305C00C80DD81C02D2097DB
S1130F8059F6DF91CF911F910F91FF90EF90DF9071
S1130F90BF90AF909F908F900895FC0194819B7FA8
S1130FA09D7F94830895FC019481892F827091FF21
S1130FB004C0892F8D7F848381E00895E0914804E3
S1130FC0F09149042CC082819381009729F1A0817A
S1130FD0B18114962C91149722FF03C00197938337
S1130FE0828382819381892BB9F414968C9114970E
S1130FF080FD04C08B7F14968C9306C012968D914D
S11310009C91139793838283A081B18114968C91D0
S11310101497826014968C930480F581E02D3097A8
S113102091F608951F920F920FB60F9211240BB6EA
S11310300F922F933F934F935F936F937F938F936D
S11310409F93AF93BF93EF93FF93B8DF87EF82BF74
S113105086B78E7F86BFFF91EF91BF91AF919F912D
S11310608F917F916F915F914F913F912F910F904D
S11310700BBE0F900FBE0F901F901895789481E0CF
S113108087BF87EF82BF85E083BF08951F920F92C9
S11310900FB60F9211240BB60F922F933F938F9399
S11310A09F93EF93FF938091D4049091D5042CB136
S11310B0FC01EA52FB4F20832D3031F4FC01EB524A
S11310C0FB4F20812093D3049C012F5F3F4F30932B
S11310D0D5042093D4048034910520F01092D504D3
S11310E01092D404FF91EF919F918F913F912F9192
S11310F00F900BBE0F900FBE0F901F90189580910C
S1131100D3041092D3040895BC0184E294EFC6D0B2
S11311106150710988E98AB986E08093950069B9BC
S11311201092900008955D9BFECF8CB90895EF92C4
S1131130FF920F931F93CF93DF937C018B01C0E049
S1131140D0E006C0F701EC0FFD1F8081ECDF219693
S1131150C017D107B8F3DF91CF911F910F91FF9082
S1131160EF900895FC0101900020E9F73197BF0149
S1131170681B790BDCCF089570D088F09F5790F0EE
S1131180B92F9927B751A0F0D1F0660F771F881FA8
S1131190991F1AF0BA95C9F712C0B13081F077D00F
S11311A0B1E0089574C0672F782F8827B85F39F0AD
S11311B0B93FCCF3869577956795B395D9F73EF407
S11311C090958095709561957F4F8F4F9F4F0895AF
S11311D0E89409C097FB3EF49095809570956195CD
S11311E07F4F8F4F9F4F9923A9F0F92F96E9BB2783
S11311F09395F695879577956795B795F111F8CFFF
S1131200FAF4BB0F11F460FF1BC06F5F7F4F8F4F69
S11312109F4F16C0882311F096E911C0772321F05F
S11312209EE8872F762F05C0662371F096E8862FF7
S113123070E060E02AF09A95660F771F881FDAF74E
S1131240880F9695879597F9089557FD9058440F00
S1131250551F59F05F3F71F04795880F97FB991F11
S113126061F09F3F79F087950895121613061406CE
S1131270551FF2CF4695F1DF08C01616170618065B
S1131280991FF1CF86957105610508940895E89436
S1131290BB2766277727CB0197F90895AA1BBB1BA9
S11312A051E107C0AA1FBB1FA617B70710F0A61B62
S11312B0B70B881F991F5A95A9F780959095BC0183
S11312C0CD0108950F931F93CF93DF93823091053F
S11312D010F482E090E0E0911805F091190520E007
S11312E030E0A0E0B0E0309719F1408151810281F3
S11312F0138148175907C8F08417950769F41097A4
S113130031F012960C93129713961C9327C00093F6
S113131018051093190522C02115310519F042173B
S1131320530718F49A01BD01EF01DF01F801DBCF87
S113133021153105F9F0281B390B2430310580F4CF
S11313408A819B816115710521F0FB01938382835E
S113135004C09093190580931805FE01329644C089
S1131360FE01E20FF31F81939193225031093983D7
S113137028833AC02091160530911705232B41F498
S11313802091020130910301309317052093160533
S113139020910001309101012115310541F42DB74F
S11313A03EB74091040150910501241B350BE09197
S11313B01605F0911705E217F307A0F42E1B3F0B57
S11313C02817390778F0AC014E5F5F4F24173507B3
S11313D048F04E0F5F1F50931705409316058193F5
S11313E0919302C0E0E0F0E0CF01DF91CF911F9133
S11313F00F910895CF93DF93009709F481C0FC0106
S1131400329713821282A0911805B0911905109792
S113141081F420813181820F931F20911605309130
S113142017052817390751F5F0931705E0931605AA
S113143067C0ED0120E030E0CE17DF0740F44A81B9
S11314405B819E0141155105F1F0EA01F5CFD3838B
S1131450C28340815181840F951FC817D90759F45D
S113146088819981840F951F0296918380838A8154
S11314709B81938382832115310529F4F093190507
S1131480E09318053DC0E901FB83EA834991599132
S1131490C40FD51FEC17FD0761F480819181840F7F
S11314A0951F0296E90199838883828193819B83A6
S11314B08A83E0E0F0E012968D919C911397009757
S11314C019F0FD01DC01F7CF8D919C9111979D01DD
S11314D02E5F3F4F820F931F209116053091170501
S11314E02817390769F4309729F4109219051092D6
S11314F0180502C013821282B0931705A093160533
S1131500DF91CF910895FB01DC0104C08D9101901E
S1131510801921F441505040C8F7881B990B089555
S1131520FB01DC0102C001900D9241505040D8F7FC
S11315300895DC0101C06D9341505040E0F70895D7
S1131540FA01A191B081009719F41097E1F0CD014F
S1131550DC01CD010D90002011F4C00113C0FB018A
S11315602191222319F02015D9F7F3CFFB01219102
S1131570201519F41E92119606C02223C1F70D906E
S11315800020A1F7D001FA01A193B08308950F932D
S11315901F93CF93DF93CDB7DEB72E970FB6F89492
S11315A0DEBF0FBECDBF0D891E8986E08C831A83F2
S11315B009838FEF9FE79E838D83AE01475E5F4F64
S11315C06F89788DCE01019638D0EF81F885E00FD0
S11315D0F11F10822E960FB6F894DEBF0FBECDBF5A
S11315E0DF91CF911F910F9108950F931F93CF9384
S11315F0DF93CDB7DEB72E970FB6F894DEBF0FBEDC
S1131600CDBF8C0186E08C831A8309838FEF9FE71B
S11316109E838D83CE01019610D0EF81F885E00F73
S1131620F11F10822E960FB6F894DEBF0FBECDBF09
S1131630DF91CF911F910F9108952F923F924F9276
S11316405F926F927F928F929F92AF92BF92CF924E
S1131650DF92EF92FF920F931F93CF93DF93CDB757
S1131660DEB72B970FB6F894DEBF0FBECDBF6C016B
S11316707B018A01FC0117821682838181FFBFC12D
S1131680CE0101963C01F6019381F70193FD85910A
S113169093FF81917F01882309F4ADC1853239F428
S11316A093FD859193FF81917F01853221F4B601E9
S11316B090E0D6D1E8CF912C212C312CFFE1F31509
S11316C0D8F08B3279F038F4803279F08332A1F497
S11316D0232D20611DC08D3261F0803369F4232DE8
S11316E0216016C0832D8260382EE32DE4603E2EE7
S11316F02AC0F32DF8601DC037FC2DC020ED280F43
S11317002A3040F08E32B9F436FC75C1232D2064A2
S1131710322E19C036FE06C08AE0989E200D112490
S1131720922E11C0EAE02E9E200D1124222EF32DBC
S1131730F0623F2E08C08C3621F4832D8068382E49
S113174002C0883641F4F70193FD859193FF81919E
S11317507F018111B3CF982F9F7D9554933028F446
S11317600C5F1F4F9FE399830DC0833631F083379D
S113177071F0833509F055C020C0F8018081898358
S11317800E5F1F4F88248394912C530112C02801AB
S1131790F2E04F0E511CF801A080B18036FE03C068
S11317A0692D70E002C06FEF7FEFC5014ED14C018F
S11317B08201F32DFF773F2E15C0280122E0420E4F
S11317C0511CF801A080B18036FE03C0692D70E081
S11317D002C06FEF7FEFC5012DD14C01F32DF068EE
S11317E03F2E820133FC19C0822D90E088169906A1
S11317F0A0F4B60180E290E033D12A94F5CFF5014C
S113180037FC859137FE81915F01B60190E028D1C4
S113181021102A9421E0821A91088114910479F705
S1131820E1C0843611F0893639F5F80137FE07C076
S113183060817181828193810C5F1F4F08C0608138
S11318407181072E000C880B990B0E5F1F4FF32D2F
S1131850FF763F2E97FF09C090958095709561950E
S11318607F4F8F4F9F4FF0683F2E2AE030E0A30157
S113187033D1882E861844C0853731F4232D2F7E2A
S1131880B22E2AE030E025C0932D997FB92E8F36F1
S1131890C1F018F4883579F0AEC0803719F0883774
S11318A021F0A9C0E92FE061BE2EB4FE0DC0FB2DCE
S11318B0F460BF2E09C034FE0AC0292F2660B22E60
S11318C006C028E030E005C020E130E002C020E19D
S11318D032E0F801B7FE07C0608171818281938193
S11318E00C5F1F4F06C06081718180E090E00E5F45
S11318F01F4FA301F1D0882E8618FB2DFF773F2EB2
S113190036FE0DC0232D2E7FA22E891458F434FEEA
S11319100BC032FC09C0832D8E7EA82E05C0B82CC6
S1131920A32C03C0B82C01C0B92CA4FE0FC0FE0127
S1131930E80DF11D8081803321F49A2D997EA92E22
S113194009C0A2FE06C0B394B39404C08A2D86785D
S113195009F0B394A3FC10C0A0FE06C0B21480F436
S1131960280C922C9B180DC0B21458F4B60180E2D6
S113197090E076D0B394F8CFB21418F42B1802C0C8
S1131980982C212CA4FE0FC0B60180E390E068D00F
S1131990A2FE16C0A1FC03C088E790E002C088E55F
S11319A090E0B6010CC08A2D867851F0A1FE02C0E9
S11319B08BE201C080E2A7FC8DE2B60190E050D03A
S11319C0891430F4B60180E390E04AD09A94F8CFB9
S11319D08A94F301E80DF11D8081B60190E040D0B6
S11319E08110F6CF222009F44ECEB60180E290E0B9
S11319F037D02A94F7CFF6018681978102C08FEF02
S1131A009FEF2B960FB6F894DEBF0FBECDBFDF91CC
S1131A10CF911F910F91FF90EF90DF90CF90BF90E7
S1131A20AF909F908F907F906F905F904F903F907A
S1131A302F900895FC010590615070400110D8F773
S1131A40809590958E0F9F1F0895FC016150704002
S1131A5001900110D8F7809590958E0F9F1F0895DF
S1131A600F931F93CF93DF93FB01238121FD03C0C9
S1131A708FEF9FEF2CC022FF16C04681578124812F
S1131A8035814217530744F4A081B1819D012F5F32
S1131A903F4F318320838C93268137812F5F3F4FC3
S1131AA03783268314C08B01EC01FB010084F1858C
S1131AB0E02D0995892BE1F6D80116968D919C911C
S1131AC01797019617969C938E931697CE01DF91E4
S1131AD0CF911F910F910895FA01AA27283051F14F
S1131AE0203181F1E8946F936E7F6E5F7F4F8F4F4B
S1131AF09F4FAF4FB1E03ED0B4E03CD0670F781FAA
S1131B00891F9A1FA11D680F791F8A1F911DA11D8E
S1131B106A0F711D811D911DA11D20D009F46894C7
S1131B203F912AE0269F11243019305D3193DEF66F
S1131B30CF010895462F4770405D4193B3E00FD025
S1131B40C9F7F6CF462F4F70405D4A3318F0495D10
S1131B5031FD4052419302D0A9F7EACFB4E0A695F3
S1131B609795879577956795BA95C9F70097610515
S1131B70710508959B01AC010A2E0694579547956B
S1131B8037952795BA95C9F7620F731F841F951F60
S10B1B90A01D0895F894FFCF95
S1131B9800001A05200002280C060180C090D025F8
S1131BA80100008E03000300041900000014000063
S1131BB8000000000098030100000000A101039D3B
S1131BC8030100000000770103A2030100000000E4
S1131BD84D0103AA03004B024A04000003630100F9
S1131BE800B2030003000219000000140000000002
S1131BF8000000BF0300A2024A04000002C503005B
S1131C08B3024A040000028D010000CD0300030062
S1131C1802190000001400000000000000D70300AF
S1131C28C4024A04000002E1030091024A040000CD
S1131C3802B7010000E903000300031900000014BF
S1131C4800000000000000F903005E024A040000DE
S1131C58020604006F024A040000020F0400800216
S1131C684A04000002E8030200030703060305030D
S1131C78040000000100020004000500060007003B
S1131C880000000000000000000000000000000048
S1131C980000000000000000000000000000000038
S1131CA80000000000000000000000000000000028
S1131CB80000000000000000000000000000000018
S1131CC80000000000000000000000000000000008
S1131CD800000000000000000000000000000000F8
S1131CE800000000000000000000000000000000E8
S1131CF800000000000000000000000000000000D8
S1131D08003A003B0039003700380036003400350B
S1131D180033003100380030002200350021005320
S1131D284F46542056455253494F4E0A56312E3089
S1131D38320A4C43442056455253494F4E0A5630B2
S1131D482E30320A005445535420425554544F4EB1
S1131D580A46554E4354494F4E20455845430A00B8
S1131D6854455354204C43440A46554E4354494F12
S1131D784E20455845430A0054455354204C454485
S1131D880A46554E4354494F4E20455845430A0088
S1131D985345542050574D0A46554E4354494F4EC7
S1131DA820455845430A00464143544F525920524E
S1131DB8455345540A46554E4354494F4E204558B9
S1131DC845430A00464143544F52592052455354FF
S1131DD84F520A46554E435452494F4E2045584592
S1131DE84300534554205350454544203A200A257E
S1131DF8646D730A0043555252205350454544209C
S1131E083A200A25646D730A004C4344203136583D
S1131E183200505245535320454E544552004D41CB
S1131E28494E204D454E550054455354005553458D
S1131E385200464143544F52590056455253494F54
S1131E484E00464154434F5259204D454E55005279
S1131E584553455400524553544F52450055534534
S1131E6852204D454E550053455420535045454442
S1131E78005345542050574D0054455354204D4564
S1131E884E552020202020200054455354204255EC
S1131E9854544F4E530054455354204C4344005417
S1131EA8455354204C4544003E25642E2025730A8E
S1131EB800494E56414C49442050415353574F52C0
S10F1EC8440A54727920414741494E00FD
S9030000FC
