:1000000045C0000056C0000054C0000052C00000AF
:1000100050C000004EC000004CC000004AC00000AC
:1000200048C0000046C0000044C0000042C00000BC
:1000300040C000003EC000003CC000003AC00000CC
:1000400038C0000036C0000034C0000032C00000DC
:1000500030C000002EC000002CC000002AC00000EC
:1000600028C0000026C0000024C0000022C00000FC
:1000700020C000001EC000001CC000001AC000000C
:1000800018C0000016C0000014C0000011241FBEDC
:10009000CFEFD0E1DEBFCDBF11E0A0E0B1E0E8E5F9
:1000A000F1E002C005900D92AC30B107D9F72AD02B
:1000B00051C0A6CF80E885BF10BC0895FC016083C5
:1000C0000895EF92FF920F931F93CF93DF937C01DC
:1000D000EB0100E010E009C0C801880F991F8E0DE8
:1000E0009F1DECDF0F5F1F4F219668816111F4CFD8
:1000F000DF91CF911F910F91FF90EF900895FC0138
:1001000080810895D7DF8FEF81BB12BA60E071E084
:1001100080E090E2D6DF2FE38DE093E02150804035
:100120009040E1F700C00000C0E0D0E00EC0CE017A
:10013000905EE5DF82BB2FE38DE093E021508040AD
:100140009040E1F700C000002196C83E23E0D207AE
:0801500074F3EACFF894FFCF2D
:0C01580041424320313233202A2325008D
:00000001FF
