S01400006770696F5F62746E5F6C65642E737265632A
S113000045C0000058C0000056C0000054C00000A5
S113001052C0000050C000004EC000004CC00000A0
S11300204AC0000048C0000046C0000044C00000B0
S113003042C0000040C000003EC000003CC00000C0
S11300403AC0000038C0000036C0000034C00000D0
S113005032C0000030C000002EC000002CC00000E0
S11300602AC0000028C0000026C0000024C00000F0
S113007022C0000020C000001EC000001CC0000000
S11300801AC0000018C0000016C0000011241FBED2
S1130090CFEFD0E1DEBFCDBF11E0A0E0B1E0E2EEF2
S11300A0F1E000E00BBF02C007900D92AE32B10741
S11300B0D9F77CD094C0A4CFDC01962F2C9130E0EA
S11300C0F901EE0FFF1FE20FF31FEE0FFF1FE050C9
S11300D0FF4F0190F081E02D608111968C9121E019
S11300E030E0082E02C0220F331F0A94E2F7209555
S11300F02623692F70E002C0660F771F8A95E2F706
S1130100622B60830895DC01962F2C9130E0F90175
S1130110EE0FFF1FE20FF31FEE0FFF1FE050FF4F24
S11301200280F381E02D608111968C9121E030E012
S1130130082E02C0220F331F0A94E2F720952623CB
S1130140692F70E002C0660F771F8A95E2F7622B71
S113015060830895FC01208130E0F901EE0FFF1F58
S1130160E20FF31FEE0FFF1FE050FF4F0480F581F5
S1130170E02D208130E0A901FC01018002C05595E9
S113018047950A94E2F740FF02C081E0089580E0B9
S113019008951F93CF93DF93EC01142F8DDF612F0C
S11301A0CE01B1DFDF91CF911F91089540E061E06E
S11301B08CE291E0EEDF40E060E08AE291E0E9DF8A
S11301C08AE291E0C7DF882329F061E08CE291E0C4
S11301D09ADFF6CF60E08CE291E095DFF1CFF894FE
S10501E0FFCF4B
S11301E23A003B003900370038003600340035004D
S11301F2330031003200300022002300210061006C
S1110202620020006400650063000005010036
S9030000FC
