S00B00006C63642E73726563E6
S113000045C0000060C000005EC000005CC000008D
S11300105AC0000058C0000056C0000054C0000080
S113002052C0000050C000004EC000004CC0000090
S11300304AC0000048C0000046C0000044C00000A0
S113004042C0000040C000003EC000003CC00000B0
S11300503AC0000038C0000036C0000034C00000C0
S113006032C0000030C000002EC000002CC00000D0
S11300702AC0000028C0000026C0000024C00000E0
S113008022C0000020C000001EC0000011241FBEBA
S1130090CFEFD0E1DEBFCDBF11E0A0E0B1E0ECE0F6
S11300A0F5E000E00BBF02C007900D92AA32B10741
S11300B0D9F721E0AAE2B1E001C01D92A534B2074C
S11300C0E1F7F2D121C29CCFDC01962F2C9130E0D4
S11300D0F901EE0FFF1FE20FF31FEE0FFF1FE050B9
S11300E0FF4F0190F081E02D608111968C9121E009
S11300F030E0082E02C0220F331F0A94E2F7209545
S11301002623692F70E002C0660F771F8A95E2F7F5
S1130110622B60830895DC01962F2C9130E0F90165
S1130120EE0FFF1FE20FF31FEE0FFF1FE050FF4F14
S11301300280F381E02D608111968C9121E030E002
S1130140082E02C0220F331F0A94E2F720952623BB
S1130150692F70E002C0660F771F8A95E2F7622B61
S113016060830895FC01208130E0F901EE0FFF1F48
S1130170E20FF31FEE0FFF1FE050FF4F0480F581E5
S1130180E02D208130E0A901FC01018002C05595D9
S113019047950A94E2F740FF02C081E0089580E0A9
S11301A008951F93CF93DF93EC01142F8DDF612FFC
S11301B0CE01B1DFDF91CF911F910895BF92CF920D
S11301C0DF92EF92FF920F931F93CF93DF938C01F3
S11301D07C0184E1E80EF11C40E060E0C701E1DF4E
S11301E060E0C80198DF80E090E001C001968A30A9
S11301F09105E4F36801E2E0CE0ED11C61E0C60192
S11302008ADFE801249660E0CE0185DF80E090E09B
S113021001C001968A309105E4F361E0CE017BDFF1
S1130220C701A0DFB82EF801828D80FD0DC060E00B
S1130230CE0171DF80E090E001C001968A30910523
S1130240E4F361E0CE0167DFB110DBCF40E061E0B1
S1130250C701A7DF80E090E001C001968A309105D4
S1130260E4F360E0C60157DF80E090E001C001964E
S11302708A309105E4F3DF91CF911F910F91FF90A4
S1130280EF90DF90CF90BF9008951F93CF93DF93AB
S1130290EC01162F8A8D80FF16C06170CE01069680
S11302A03ADF11FB662760F9CE01089634DF12FBB2
S11302B0662760F9CE010A962EDF13FB662760F9E4
S11302C0CE010C9628DF14FB662760F9CE010E964A
S11302D022DF15FB662760F9CE0140961CDF16FB72
S11302E0662760F9CE01429616DF17FB662760F990
S11302F0CE01449610DF249661E0CE010CDF60E06D
S1130300CE0109DFDF91CF911F9108951F93CF9301
S1130310DF93EC01162F642FFEDE60E0CE0102961F
S1130320FADE8A8D80FD0AC0612F607FCE01ADDFC9
S1130330612F6295607FCE01A8DF03C0612FCE01DB
S1130340A4DFDF91CF911F910895CF93DF93EC0148
S113035040E0DCDFCE0132DFDF91CF910895CF930F
S1130360DF93EC0141E0D2DFCE0128DFDF91CF91B2
S11303700895AF92BF92CF92DF92EF92FF920F93C4
S11303801F93CF93DF93CDB7DEB70D851E85F8019C
S1130390828D9F8590FB80F9828F888999899183CA
S11303A080838A899B89938382837E01F6E1EF0EA1
S11303B0F11C8C899D89F8019583848340E061E078
S11303C0C801EFDE40E061E0C8010296EADE40E0E9
S11303D061E0C8010496E5DEF801828D80FD19C054
S11303E01EC05701F2E0AF0EB11CC6010396880F80
S11303F0991F800F911FF70120813181FC01318306
S1130400208340E061E0CDDEFFEFCF1ADF0A750103
S113041002C0C12CD12C84E0C816D10414F3689412
S1130420CC24C2F8D12C17C05701E2E0AE0EB11CA7
S1130430C6010396880F991F800F911FF701208131
S11304403181FC013183208340E061E0AADEFFEFCB
S1130450CF1ADF0A750188E0C816D1042CF3F8011D
S1130460828D80FD07C062E0C8016FDF68E2C801C9
S11304706CDF03C068E3C80168DF6CE0C80165DFB6
S113048066E0C80162DF61E0C8015FDF60E8C801BF
S11304905CDFDF91CF911F910F91FF90EF90DF9080
S11304A0CF90BF90AF90089581E097E09F938F9392
S11304B096E09F938F9395E09F938F9394E09F93FF
S11304C08F9392E09F931F928F931F921F921F927C
S11304D01F928AE291E09F938F934BDF8DB79EB773
S11304E041960FB6F8949EBF0FBE8DBF61E48AE2B9
S11304F091E035DF9FE32DE083E091502040804080
S10F0500E1F700C00000F2CFF894FFCF38
S113050C3A003B003900370038003600340035001F
S113051C330031003200300022002300210061003E
S10D052C6200200064006500630013
S9030000FC
