S00B0000626D752E73726563D5
S113000045C0000060C000005EC000005CC000008D
S11300105AC0000058C0000056C0000054C0000080
S113002052C0000050C000004EC000004CC0000090
S11300304AC0000048C0000046C0000044C00000A0
S113004042C0000040C000003EC000003CC00000B0
S11300503AC0000038C0000036C0000034C00000C0
S113006032C0000030C000002EC000002CC00000D0
S11300702AC0000028C0000026C0000024C00000E0
S113008022C0000020C000001EC0000011241FBEBA
S1130090CFEFD0E1DEBFCDBF11E0A0E0B1E0E4E0FE
S11300A0F8E000E00BBF02C007900D92AA33B1073D
S11300B0D9F721E0AAE3B1E001C01D92A535B2074A
S11300C0E1F7B9D19DC39CCFDC01962F2C9130E090
S11300D0F901EE0FFF1FE20FF31FEE0FFF1FEA5FA0
S11300E0FE4F0190F081E02D608111968C9121E00A
S11300F030E0082E02C0220F331F0A94E2F7209545
S11301002623692F70E002C0660F771F8A95E2F7F5
S1130110622B60830895DC01962F2C9130E0F90165
S1130120EE0FFF1FE20FF31FEE0FFF1FEA5FFE4FFC
S11301300280F381E02D608111968C9121E030E002
S1130140082E02C0220F331F0A94E2F720952623BB
S1130150692F70E002C0660F771F8A95E2F7622B61
S113016060830895FC01208130E0F901EE0FFF1F48
S1130170E20FF31FEE0FFF1FEA5FFE4F0480F581CD
S1130180E02D208130E0A901FC01018002C05595D9
S113019047950A94E2F740FF02C081E0089580E0A9
S11301A008951F93CF93DF93EC01142F8DDF612FFC
S11301B0CE01B1DFDF91CF911F910895CF93DF93EB
S11301C0EC0140E060E08C899D89EBDF60E0888190
S11301D09981A1DF61E08A819B819DDF61E08C814F
S11301E09D8199DF08C060E08C819D8194DF61E08E
S11301F08C819D8190DF8C899D89B4DF8111F3CF3F
S113020040E061E08C899D89CCDF60E08A819B813C
S113021082DFDF91CF9108951F93CF93DF93EC0199
S1130220162F8E898130B1F461708E819F8173DFC6
S113023011FB662760F9888599856DDF12FB6627B7
S113024060F98A859B8567DF13FB662760F98C85D7
S11302509D8561DF14FB662760F98E859F855BDFD2
S113026015FB662760F98889998955DF16FB66278F
S113027060F98A899B894FDF17FB662760F98C89AF
S11302809D8949DF61E08C819D8145DF60E08C813F
S11302909D8141DFDF91CF911F9108951F93CF93EB
S11302A0DF93EC01162F411105C061E0888199812B
S11302B032DF04C060E0888199812DDF60E08A81AB
S11302C09B8129DF8E89813021F4612FCE01A4DF47
S11302D009C0612F62956F70CE019EDF612F6F7030
S11302E0CE019ADFCE016ADFDF91CF911F9108958D
S11302F041E0D4CF089540E0D1CF0895CF92DF926A
S1130300EF92FF920F931F93CF93DF936C017B01C6
S11303108A01C0E0D0E007C0F701EC0FFD1F608147
S1130320C601E9DF2196C017D107B0F3DF91CF9161
S11303301F910F91FF90EF90DF90CF900895FB01F4
S113034001900020E9F73197AF01461B570BD6CF38
S11303500895CF92DF92EF92FF920F931F93CF9362
S1130360DF93CDB7DEB7EB84FC848D85FE013E962A
S1130370D70156968C938823C9F000E010E040C062
S11303806F01B2E0CB0ED11C80819181F801EE0F98
S1130390FF1FEE0DFF1D91838083009719F040E04D
S11303A061E0FFDE0F5F1F4FF60102C000E010E0C6
S11303B0073011052CF362E0C7019ADF68E2C70138
S11303C097DF6CE0C70194DF66E0C70191DF61E06D
S11303D0C7018EDF27C06F0182E0C80ED11C808167
S11303E09181F801EE0FFF1FEE0DFF1D91838083B5
S11303F0009719F040E061E0D4DE0F5F1F4FF60173
S11304000B30110544F368E3C70172DF6CE0C701E8
S11304106FDF66E0C7016CDF61E0C70169DF60E898
S1130420C70166DFDF91CF911F910F91FF90EF908D
S1130430DF90CF900895CF93DF9300D000D000D009
S1130440CDB7DEB741E061E080E391E0AADE82E06F
S113045090E0B5D04C0111E0FC01108387E081836A
S113046082E090E0ACD05C01FC01108386E08183E3
S113047082E090E0A4D06C01FC01108385E08183CC
S113048082E090E09CD07C01FC01108384E08183B5
S113049082E090E094D09A838983FC01108383E006
S11304A0818382E090E08BD03C01FC01108322E048
S11304B0218382E090E083D02C01FC01108311831E
S11304C082E090E07CD01C01FC011083118282E068
S11304D090E075D09C838B83FC01108222E0218301
S11304E082E090E06CD09E838D83FC0110821183A6
S11304F082E090E064D0FC01108211829F928F927E
S1130500BF92AF92DF92CF92FF92EF92FA81FF9364
S113051029812F937F926F925F924F923F922F92F5
S1130520EC81EF93FB81FF932E812F93ED81EF9369
S11305309F938F931F938AE391E09F938F9309DF97
S113054062E371E08AE391E0FADE0FB6F894DEBF6D
S11305500FBECDBF61E080E391E0DDDD9FE3EDE020
S1130560F3E09150E040F040E1F700C0000061E0AA
S11305708AE391E0BDDE00E010E01DC081E490E07C
S1130580002E02C0959587950A94E2F721E029830D
S113059080FF1982698180E391E0BDDD6981605D3E
S11305A08AE391E0A8DE8FE19EE40197F1F700C0B1
S11305B000000F5F1F4F0830110504F3CBCF0F93DA
S11305C01F93CF93DF938230910510F482E090E083
S11305D0E0915301F091540120E030E0A0E0B0E05C
S11305E0309719F1408151810281138148175907CD
S11305F0C8F08417950769F4109731F012960C939C
S1130600129713961C9327C000935301109354011F
S113061022C02115310519F04217530718F49A0125
S1130620BD01EF01DF01F801DBCF21153105F9F040
S1130630281B390B2430310580F48A819B81611594
S1130640710521F0FB019383828304C090935401CC
S113065080935301FE01329644C0FE01E20FF31F62
S11306608193919322503109398328833AC0209190
S1130670510130915201232B41F420910201309118
S113068003013093520120935101209100013091D4
S113069001012115310541F42DB73EB74091040104
S11306A050910501241B350BE0915101F091520149
S11306B0E217F307A0F42E1B3F0B2817390778F035
S11306C0AC014E5F5F4F2417350748F04E0F5F1F94
S11306D050935201409351018193919302C0E0E001
S11306E0F0E0CF01DF91CF911F910F910895CF9347
S11306F0DF93009709F481C0FC01329713821282C0
S1130700A0915301B0915401109781F4208131815B
S1130710820F931F209151013091520128173907FC
S113072051F5F0935201E093510167C0ED0120E0CF
S113073030E0CE17DF0740F44A815B819E0141150A
S11307405105F1F0EA01F5CFD383C2834081518191
S1130750840F951FC817D90759F488819981840F8C
S1130760951F0296918380838A819B8193838283E0
S11307702115310529F4F0935401E09353013DC050
S1130780E901FB83EA8349915991C40FD51FEC1702
S1130790FD0761F480819181840F951F0296E90120
S11307A099838883828193819B838A83E0E0F0E04C
S11307B012968D919C911397009719F0FD01DC011D
S11307C0F7CF8D919C9111979D012E5F3F4F820F22
S11307D0931F20915101309152012817390769F470
S11307E0309729F4109254011092530102C01382DD
S11307F01282B0935201A0935101DF91CF910895D9
S1070800F894FFCF96
S11308040000550120003A003B003900370038004D
S11308143600340035003300310032003000220049
S1130824230021006100620020006400650063006D
S10D083403005458203A204100004C
S9030000FC
