:1000000045C0000060C000005EC000005CC0000091
:100010005AC0000058C0000056C0000054C0000084
:1000200052C0000050C000004EC000004CC0000094
:100030004AC0000048C0000046C0000044C00000A4
:1000400042C0000040C000003EC000003CC00000B4
:100050003AC0000038C0000036C0000034C00000C4
:1000600032C0000030C000002EC000002CC00000D4
:100070002AC0000028C0000026C0000024C00000E4
:1000800022C0000020C000001EC0000011241FBEBE
:10009000CFEFD0E1DEBFCDBF11E0A0E0B1E0E6EDF3
:1000A000F7E000E00BBF02C007900D92A233B1074A
:1000B000D9F721E0A2E3B1E001C01D92AD34B2074F
:1000C000E1F78ED186C39CCFDC01962F2C9130E0D6
:1000D000F901EE0FFF1FE20FF31FEE0FFF1FEA5FA4
:1000E000FE4F0190F081E02D608111968C9121E00E
:1000F00030E0082E02C0220F331F0A94E2F7209549
:100100002623692F70E002C0660F771F8A95E2F7F9
:10011000622B60830895DC01962F2C9130E0F90169
:10012000EE0FFF1FE20FF31FEE0FFF1FEA5FFE4F00
:100130000280F381E02D608111968C9121E030E006
:10014000082E02C0220F331F0A94E2F720952623BF
:10015000692F70E002C0660F771F8A95E2F7622B65
:1001600060830895FC01208130E0F901EE0FFF1F4C
:10017000E20FF31FEE0FFF1FEA5FFE4F0480F581D1
:10018000E02D208130E0A901FC01018002C05595DD
:1001900047950A94E2F740FF02C081E0089580E0AD
:1001A00008951F93CF93DF93EC01142F8DDF612F00
:1001B000CE01B1DFDF91CF911F910895CF93DF93EF
:1001C000EC0140E060E08C899D89EBDF60E0888194
:1001D0009981A1DF61E08A819B819DDF61E08C8153
:1001E0009D8199DF08C060E08C819D8194DF61E092
:1001F0008C819D8190DF8C899D89B4DF8111F3CF43
:1002000040E061E08C899D89CCDF60E08A819B8140
:1002100082DFDF91CF9108951F93CF93DF93EC019D
:10022000162F8E898130B1F461708E819F8173DFCA
:1002300011FB662760F9888599856DDF12FB6627BB
:1002400060F98A859B8567DF13FB662760F98C85DB
:100250009D8561DF14FB662760F98E859F855BDFD6
:1002600015FB662760F98889998955DF16FB662793
:1002700060F98A899B894FDF17FB662760F98C89B3
:100280009D8949DF61E08C819D8145DF60E08C8143
:100290009D8141DFDF91CF911F9108951F93CF93EF
:1002A000DF93EC01162F411105C061E0888199812F
:1002B00032DF04C060E0888199812DDF60E08A81AF
:1002C0009B8129DF8E89813021F4612FCE01A4DF4B
:1002D00009C0612F62956F70CE019EDF612F6F7034
:1002E000CE019ADFCE016ADFDF91CF911F91089591
:1002F00041E0D4CF089540E0D1CF0895CF92DF926E
:10030000EF92FF920F931F93CF93DF93CDB7DEB79A
:10031000EB84FC848D85FE013E96D70156968C9326
:100320008823C9F000E010E040C06F01B2E0CB0EBE
:10033000D11C80819181F801EE0FFF1FEE0DFF1D92
:1003400091838083009719F040E061E02ADF0F5F1E
:100350001F4FF60102C000E010E0073011052CF33A
:1003600062E0C701C5DF68E2C701C2DF6CE0C70118
:10037000BFDF66E0C701BCDF61E0C701B9DF27C0AE
:100380006F0182E0C80ED11C80819181F801EE0FCF
:10039000FF1FEE0DFF1D91838083009719F040E051
:1003A00061E0FFDE0F5F1F4FF6010B30110544F3D4
:1003B00068E3C7019DDF6CE0C7019ADF66E0C70113
:1003C00097DF61E0C70194DF60E8C70191DFDF914B
:1003D000CF911F910F91FF90EF90DF90CF900895F4
:1003E000CF93DF9300D000D000D0CDB7DEB741E08F
:1003F00060E080E391E0D5DE82E090E0C9D04C017E
:1004000022242394FC01208287E0818382E090E013
:10041000BFD05C01FC01208286E0818382E090E015
:10042000B7D06C01FC01208285E0818382E090E0FE
:10043000AFD07C01FC01208284E0818382E090E0E7
:10044000A7D08C01FC01208283E0818382E090E0D0
:100450009FD03C01FC01208222E0218382E090E0D9
:1004600097D02C01FC012082218282E090E090D084
:100470009A838983FC012082118282E090E088D0F7
:100480009C838B83FC01108222E0218382E090E038
:100490007FD09E838D83FC011082218282E090E0D8
:1004A00077D0FC01108211829F928F92BF92AF92FF
:1004B000DF92CF92FF92EF921F930F937F926F92F2
:1004C0005F924F92FA81FF9329812F93EC81EF93F2
:1004D000FB81FF932E812F93ED81EF939F938F9359
:1004E0002F9282E391E09F938F9308DF0FB6F894E9
:1004F000DEBF0FBECDBF19821B8299819130A1F062
:1005000018F0923061F1F9CF80E391E02BDE811198
:10051000F4CFE981EF5FE9838EEF90E00197F1F787
:1005200000C000001B82E9CF80E391E01BDE90E079
:100530000B8002C0880F991F0A94E2F7382AEEEF69
:10054000F0E03197F1F700C00000FB81F73018F0C0
:1005500029812F5F29838B818F5F8B83CECF80E3AF
:1005600091E000DE882349F2632D82E391E0C3DE4F
:100570009FEDE2E2F2E09150E040F040E1F700C090
:10058000000061E082E391E0B3DE1982312CB5CF47
:100590000F931F93CF93DF938230910510F482E085
:1005A00090E0E0914B01F0914C0120E030E0A0E0C0
:1005B000B0E0309719F140815181028113814817D1
:1005C0005907C8F08417950769F4109731F012960F
:1005D0000C93129713961C9327C000934B01109312
:1005E0004C0122C02115310519F04217530718F4A8
:1005F0009A01BD01EF01DF01F801DBCF21153105C3
:10060000F9F0281B390B2430310580F48A819B8155
:100610006115710521F0FB019383828304C09093DF
:100620004C0180934B01FE01329644C0FE01E20F63
:10063000F31F8193919322503109398328833AC063
:100640002091490130914A01232B41F4209102016C
:100650003091030130934A01209349012091000118
:10066000309101012115310541F42DB73EB740917C
:10067000040150910501241B350BE0914901F091D3
:100680004A01E217F307A0F42E1B3F0B2817390786
:1006900078F0AC014E5F5F4F2417350748F04E0FDE
:1006A0005F1F50934A01409349018193919302C087
:1006B000E0E0F0E0CF01DF91CF911F910F9108951D
:1006C000CF93DF93009709F481C0FC013297138226
:1006D0001282A0914B01B0914C01109781F42081BE
:1006E0003181820F931F2091490130914A012817CF
:1006F000390751F5F0934A01E093490167C0ED01D4
:1007000020E030E0CE17DF0740F44A815B819E0194
:1007100041155105F1F0EA01F5CFD383C283408141
:100720005181840F951FC817D90759F48881998181
:10073000840F951F0296918380838A819B81938386
:1007400082832115310529F4F0934C01E0934B018C
:100750003DC0E901FB83EA8349915991C40FD51F3C
:10076000EC17FD0761F480819181840F951F02963B
:10077000E90199838883828193819B838A83E0E066
:10078000F0E012968D919C911397009719F0FD015E
:10079000DC01F7CF8D919C9111979D012E5F3F4F0A
:1007A000820F931F2091490130914A012817390780
:1007B00069F4309729F410924C0110924B0102C059
:1007C00013821282B0934A01A0934901DF91CF9125
:0607D0000895F894FFCF2C
:1007D60000004D0120003A003B0039003700380088
:1007E600360034003500330031003200300022007C
:1007F60023002100610062002000640065006300A0
:020806000300ED
:00000001FF
